:020000040800F2
:100000000000022025200008F5190008FB1900084F
:10001000011A0008071A00080D1A00080000000065
:10002000000000000000000000000000131A00089B
:10003000211A0008000000002F1A00083D1A0008CD
:10004000752000087520000875200008752000083C
:10005000752000087520000875200008752000082C
:10006000752000087520000875200008752000081C
:10007000491A000875200008752000085D1A00085C
:100080007520000875200008711A00087520000806
:1000900075200008752000087520000875200008EC
:1000A00075200008752000087520000875200008DC
:1000B00075200008851A00087520000875200008C2
:1000C00075200008752000087520000875200008BC
:1000D00075200008752000087520000875200008AC
:1000E000752000087520000875200008752000089C
:1000F00075200008991A000875200008752000086E
:10010000752000087520000875200008752000087B
:10011000752000087520000875200008752000086B
:10012000752000087520000875200008752000085B
:100130007520000800000000000000007520000885
:10014000752000087520000875200008752000083B
:10015000752000087520000875200008752000082B
:10016000752000087520000875200008752000081B
:100170007520000875200008000000000000000045
:08018000AD1A0008752000080B
:1001900010B5054C237833B9044B13B10448AFF3C1
:1001A00000800123237010BD5C00002000000000CF
:1001B0003878000808B5034B1BB103490348AFF377
:1001C000008008BD000000006000002038780008B2
:1001D00081F0004102E000BF83F0004330B54FEAF8
:1001E00041044FEA430594EA050F08BF90EA020F65
:1001F0001FBF54EA000C55EA020C7FEA645C7FEAF8
:10020000655C00F0E2804FEA5454D4EB5555B8BF1A
:100210006D420CDD2C4480EA020281EA030382EA8B
:10022000000083EA010180EA020281EA0303362D1D
:1002300088BF30BD11F0004F4FEA01314FF4801CF0
:100240004CEA113102D0404261EB410113F0004F02
:100250004FEA03334CEA133302D0524263EB4303B9
:1002600094EA050F00F0A780A4F10104D5F1200E57
:100270000DDB02FA0EFC22FA05F2801841F10001B2
:1002800003FA0EF2801843FA05F359410EE0A5F186
:1002900020050EF1200E012A03FA0EFC28BF4CF0B7
:1002A000020C43FA05F3C01851EBE37101F000456D
:1002B00007D54FF0000EDCF1000C7EEB00006EEB7A
:1002C0000101B1F5801F1BD3B1F5001F0CD3490804
:1002D0005FEA30004FEA3C0C04F101044FEA44525B
:1002E00012F5800F80F09A80BCF1004F08BF5FEAE2
:1002F000500C50F1000041EB045141EA050130BDC2
:100300005FEA4C0C404141EB0101013C28BFB1F5D3
:10031000801FE9D291F0000F04BF01460020B1FA1E
:1003200081F308BF2033A3F10B03B3F120020CDAF1
:100330000C3208DD02F1140CC2F10C0201FA0CF0CF
:1003400021FA02F10CE002F11402D8BFC2F1200C34
:1003500001FA02F120FA0CFCDCBF41EA0C019040EA
:10036000E41AA2BF01EB0451294330BD6FEA040433
:100370001F3C1CDA0C340EDC04F11404C4F120021E
:1003800020FA04F001FA02F340EA030021FA04F330
:1003900045EA030130BDC4F10C04C4F1200220FA87
:1003A00002F001FA04F340EA0300294630BD21FAC5
:1003B00004F0294630BD94F0000F83F4801306BF8B
:1003C00081F480110134013D4EE77FEA645C18BF7F
:1003D0007FEA655C29D094EA050F08BF90EA020F16
:1003E00005D054EA000C04BF1946104630BD91EA0E
:1003F000030F1EBF0021002030BD5FEA545C05D111
:100400004000494128BF41F0004130BD14F580044F
:100410003CBF01F5801130BD01F0004545F0FE41C3
:1004200041F470014FF0000030BD7FEA645C1ABFF8
:10043000194610467FEA655C1CBF0B46024650EA2F
:10044000013406BF52EA033591EA030F41F400215B
:1004500030BD00BF90F0000F04BF0021704730B5E1
:100460004FF4806404F132044FF000054FF00001B6
:1004700050E700BF90F0000F04BF0021704730B577
:100480004FF4806404F1320410F0004548BF40424C
:100490004FF000013EE700BF42004FEAE2014FEAA1
:1004A00031014FEA02701FBF12F07F4393F07F4F7C
:1004B00081F06051704732F07F4208BF704793F07F
:1004C0007F4F04BF41F40021704730B54FF4607492
:1004D00001F0004521F000411CE700BF50EA010295
:1004E00008BF704730B54FF000050AE050EA01023E
:1004F00008BF704730B511F0004502D5404261EBAE
:1005000041014FF4806404F132045FEA915C3FF4EE
:10051000D8AE4FF003025FEADC0C18BF03325FEA8B
:10052000DC0C18BF033202EBDC02C2F1200300FA3C
:1005300003FC20FA02F001FA03FE40EA0E0021FA61
:1005400002F11444BDE600BF70B54FF0FF0C4CF44F
:10055000E06C1CEA11541DBF1CEA135594EA0C0F01
:1005600095EA0C0F00F0DEF82C4481EA030621EA3C
:100570004C5123EA4C5350EA013518BF52EA033577
:1005800041F4801143F4801338D0A0FB02CE4FF029
:100590000005E1FB02E506F00042E0FB03E54FF059
:1005A0000006E1FB03569CF0000F18BF4EF0010E51
:1005B000A4F1FF04B6F5007F64F5407404D25FEA4D
:1005C0004E0E6D4146EB060642EAC62141EA555100
:1005D0004FEAC52040EA5E504FEACE2EB4F1FD0C42
:1005E00088BFBCF5E06F1ED8BEF1004F08BF5FEAC0
:1005F000500E50F1000041EB045170BD06F0004672
:1006000046EA010140EA020081EA0301B4EB5C041E
:10061000C2BFD4EB0C0541EA045170BD41F4801116
:100620004FF0000E013C00F3AB8014F1360FDEBF3B
:10063000002001F0004170BDC4F10004203C35DA17
:100640000C341BDC04F11404C4F1200500FA05F39A
:1006500020FA04F001FA05F240EA020001F000423B
:1006600021F0004110EBD37021FA04F642EB0601B1
:100670005EEA430E08BF20EAD37070BDC4F10C04DB
:10068000C4F1200500FA04F320FA05F001FA04F29F
:1006900040EA020001F0004110EBD37041F100018B
:1006A0005EEA430E08BF20EAD37070BDC4F1200596
:1006B00000FA05F24EEA020E20FA04F301FA05F2FE
:1006C00043EA020321FA04F001F0004121FA04F2A6
:1006D00020EA020000EBD3705EEA430E08BF20EA76
:1006E000D37070BD94F0000F0FD101F000464000B0
:1006F00041EB010111F4801F08BF013CF7D041EA32
:10070000060195F0000F18BF704703F00046520035
:1007100043EB030313F4801F08BF013DF7D043EA06
:100720000603704794EA0C0F0CEA135518BF95EABC
:100730000C0F0CD050EA410618BF52EA4306D1D143
:1007400081EA030101F000414FF0000070BD50EA62
:10075000410606BF1046194652EA430619D094EAEC
:100760000C0F02D150EA013613D195EA0C0F05D1D6
:1007700052EA03361CBF104619460AD181EA03012A
:1007800001F0004141F0FE4141F470014FF00000E2
:1007900070BD41F0FE4141F4780170BD70B54FF07D
:1007A000FF0C4CF4E06C1CEA11541DBF1CEA1355FD
:1007B00094EA0C0F95EA0C0F00F0A7F8A4EB0504DF
:1007C00081EA030E52EA03354FEA013100F08880D6
:1007D0004FEA03334FF0805545EA131343EA12639F
:1007E0004FEA022245EA111545EA10654FEA002654
:1007F0000EF000419D4208BF964244F1FD0404F50D
:10080000407402D25B084FEA3202B61A65EB030568
:100810005B084FEA32024FF480104FF4002CB6EB25
:10082000020E75EB030E22BFB61A754640EA0C00A5
:100830005B084FEA3202B6EB020E75EB030E22BFE5
:10084000B61A754640EA5C005B084FEA3202B6EB26
:10085000020E75EB030E22BFB61A754640EA9C00E5
:100860005B084FEA3202B6EB020E75EB030E22BFB5
:10087000B61A754640EADC0055EA060E18D04FEA73
:10088000051545EA16754FEA06164FEAC30343EA13
:1008900052734FEAC2025FEA1C1CC0D111F4801FE0
:1008A0000BD141EA00014FF000004FF0004CB6E7D9
:1008B00011F4801F04BF01430020B4F1FD0C88BF78
:1008C000BCF5E06F3FF6AFAEB5EB030C04BFB6EB83
:1008D000020C5FEA500C50F1000041EB045170BD76
:1008E0000EF0004E4EEA113114EB5C04C2BFD4EBA3
:1008F0000C0541EA045170BD41F480114FF0000E27
:10090000013C90E645EA060E8DE60CEA135594EAA2
:100910000C0F08BF95EA0C0F3FF43BAF94EA0C0FA5
:100920000AD150EA01347FF434AF95EA0C0F7FF41A
:1009300025AF104619462CE795EA0C0F06D152EA6E
:1009400003353FF4FDAE1046194622E750EA410652
:1009500018BF52EA43067FF4C5AE50EA41047FF463
:100960000DAF52EA43057FF4EBAE12E74A0011D215
:1009700012F5001211D20DD56FF47873B3EB6252F9
:100980000ED44FEAC12343F0004343EA505323FA05
:1009900002F070474FF00000704750EA013002D17A
:1009A0004FF0FF3070474FF00000704753B94AB91D
:1009B000002908BF00281CBF4FF0FF314FF0FF3067
:1009C00000F070B9ADF1080C6DE904CE00F006F846
:1009D000DDF804E0DDE9022304B070472DE9F047BB
:1009E000089E0D4604460F46002B4AD18A42944683
:1009F00065D9B2FA82F343B102FA03FCC3F12002D3
:100A00009F4020FA02F217439C404FEA1C4E1FFA07
:100A10008CF5B7FBFEF1220C0EFB117742EA074280
:100A200001FB05F090420AD91CEB020201F1FF37ED
:100A300080F01C81904240F2198102396244121AFE
:100A4000A4B2B2FBFEF00EFB102244EA024400FB0B
:100A500005F5A5420AD91CEB040400F1FF3280F031
:100A60000781A54240F204816444023840EA014013
:100A7000641B00211EB1DC400023C6E90043BDE831
:100A8000F0878B4208D9002E00F0ED800021C6E9E6
:100A900000050846BDE8F087B3FA83F1002949D183
:100AA000AB4202D3824200F2F880841A65EB030263
:100AB00001201746002EE2D0C6E90047DFE702B961
:100AC000FFDEB2FA82F3002B40F090808A1A4FEAE0
:100AD0001C471FFA8CFE0121B2FBF7F507FB15201E
:100AE000220C42EA00420EFB05F0904208D91CEBB2
:100AF000020205F1FF3802D2904200F2CB80454657
:100B0000121AA4B2B2FBF7F007FB102244EA024427
:100B10000EFB00FEA64508D91CEB040400F1FF32D1
:100B200002D2A64500F2BB801046A4EB0E0440EAB8
:100B300005409FE7C1F120078B4022FA07FC4CEAF1
:100B4000030C05FA01F420FA07F3FD404FEA1C49B3
:100B50002343B5FBF9F81FFA8CFE09FB18551C0C52
:100B600044EA054408FB0EF5A54202FA01F200FA38
:100B700001F00BD91CEB040408F1FF3A80F08880E7
:100B8000A54240F28580A8F102086444641B9DB22E
:100B9000B4FBF9F309FB134445EA044403FB0EFEDE
:100BA000A64508D91CEB040403F1FF356CD2A64519
:100BB0006AD9023B644443EA0843A3FB0295A4EBD1
:100BC0000E04AC42C846AE4656D353D056B1B0EB35
:100BD000080264EB0E0404FA07F7CA40CC4017433E
:100BE000C6E9007418460021BDE8F087C3F1200172
:100BF00002FA03FC20FA01F225FA01F19D402A4392
:100C00004FEA1C471FFA8CFEB1FBF7F007FB1015EB
:100C1000110C41EA054100FB0EF58D4204FA03F484
:100C200008D91CEB010100F1FF382FD28D422DD9DC
:100C300002386144491B92B2B1FBF7F507FB15116D
:100C400042EA014205FB0EF1914208D91CEB020277
:100C500005F1FF3816D2914214D9023D6244521A6E
:100C600045EA004138E73146304608E73946E6E6CE
:100C70001046FBE64845A9D2B9EB020865EB0C0E1D
:100C8000013BA3E74546EAE72B4694E74046D1E718
:100C9000D0467BE7023D624432E708460AE76444F7
:100CA000023842E7704700BF034613F8012B002AC1
:100CB000FBD1181A01387047000000000000000046
:100CC00001F0FF01102A2BDB10F0070F08D010F8FD
:100CD000013B013A8B422DD010F0070F42B3F6D101
:100CE000F0B441EA012141EA014122F007047FF01A
:100CF00000070023F0E80256083C85EA010586EA71
:100D0000010685FA47F5A3FA87F586FA47F6A5FAAC
:100D100087F68EB9EED1F0BC01F0FF0102F00702B8
:100D200032B110F8013B013A83EA010313B1F8D163
:100D30000020704701387047002D06BF3546033844
:100D4000073815F0010F07D1013015F4807F02BF7D
:100D5000013015F4C03F0130F0BC0138704700BFCE
:100D60004FF0FF3C06E000BF4FF0010C02E000BF77
:100D70004FF0010C4DF804CD4FEA410C7FEA6C5C5A
:100D80004FEA430C18BF7FEA6C5C1BD001B050EAFD
:100D9000410C0CBF52EA430C91EA030F02BF90EAE8
:100DA000020F0020704710F1000F91EA030F58BFA7
:100DB000994208BF90422CBFD8176FEAE37040F009
:100DC000010070474FEA410C7FEA6C5C02D150EAA7
:100DD000013C07D14FEA430C7FEA6C5CD6D152EA62
:100DE000033CD3D05DF8040B704700BF8446104627
:100DF00062468C461946634600E000BF01B5FFF726
:100E0000B7FF002848BF10F1000F01BD4DF808EDF5
:100E1000FFF7F4FF0CBF012000205DF808FB00BFC6
:100E20004DF808EDFFF7EAFF34BF012000205DF820
:100E300008FB00BF4DF808EDFFF7E0FF94BF01206D
:100E400000205DF808FB00BF4DF808EDFFF7CEFF6E
:100E500094BF012000205DF808FB00BF4DF808EDAD
:100E6000FFF7C4FF34BF012000205DF808FB00BF7E
:100E70004FEA410212F5001215D211D56FF47873C2
:100E8000B3EB625212D94FEAC12343F0004343EA65
:100E9000505311F0004F23FA02F018BF4042704740
:100EA0004FF00000704750EA013005D111F00040CA
:100EB00008BF6FF0004070474FF00000704700BF60
:100EC000B0B5ACB002AF002387F8A430002387F898
:100ED000A730002387F8A3300023C7F89C300023F5
:100EE00087F89B30002387F89A30002387F89930E1
:100EF0000023C7F894308A4B07F168041D460FCDD4
:100F00000FC40FCD0FC495E8070003C4228007F17A
:100F100068031846FFF7C8FE03469AB207F1680156
:100F20006423804804F0F3FA04F0ACFE00F010F9FA
:100F300000F0CAFA00F0A0FA00F0DAF900F072FA54
:100F400000F04CFA00F0C0F900F06CF938460C23C0
:100F500000930023734A744900F0FAFD3B460521D3
:100F6000184600F0DDFE07F134037049184604F01E
:100F70001FFF07F134031846FFF796FE03469AB2A7
:100F800007F134016423674804F0C1FA3B46184670
:100F900000F0B8FF07F134036549184604F008FF74
:100FA00007F134031846FFF77FFE03469AB207F1B4
:100FB000340164235B4804F0AAFA5E4803F05CF84D
:100FC0005D4802F0EBFE002387F8A6300EE097F8AC
:100FD000A63099B23846002300930023002200F087
:100FE000F9FD97F8A630013387F8A63097F8A630B8
:100FF0009AB2BB899A42EAD33B46184600F0A8FE53
:10100000002387F8A5300EE097F8A53099B238464E
:101010003C230093FF230A2200F0DCFD97F8A53063
:10102000013387F8A53097F8A5309AB2BB899A4268
:10103000EAD33B46184600F08BFE07F134033F49E4
:10104000184604F0B5FE07F134031846FFF72CFEEE
:1010500003469AB207F134016423324804F057FA88
:10106000374B1B78012BFBD1364BC7F89C30D7F898
:101070009C301B0C87F89B30D7F89C301B0A87F8F4
:101080009A30D7F89C3087F8993097F8A73099B202
:1010900097F89A4097F89B20384697F89930009334
:1010A000234600F097FD3B46184600F051FE97F8A6
:1010B000A7309AB2BB899A4204D297F8A73001337D
:1010C00087F8A730204B1A6807F134031F491846E8
:1010D00004F06EFE07F134031846FFF7E5FD034602
:1010E0009AB207F1340164230E4804F010FA07F1B4
:1010F0003403D7F894201549184604F059FE07F137
:1011000034031846FFF7D0FD03469AB207F13401C5
:101110006423044804F0FBF9094B00221A709FE78E
:10112000F0780008C0010020D000002050780008AE
:101130007C78000818010020C0000020A07800087A
:1011400069020020C383C4006C020020C878000834
:1011500080B594B000AF07F120033022002118467B
:1011600004F046FE07F10C0300221A605A609A60F0
:10117000DA601A610023BB60284B1B6C274A43F0DE
:1011800080531364254B1B6C03F08053BB60BB681A
:1011900000237B60224B1B68214A43F48043136089
:1011A0001F4B1B6803F480437B607B6801233B6219
:1011B0004FF480337B620223BB634FF48003FB63F5
:1011C00006233B6448237B640223BB640723FB6440
:1011D00007F12003184602F05FF90346002B01D007
:1011E00000F032FA0F23FB6002233B6100237B6196
:1011F0004FF48053BB614FF48053FB6107F10C0344
:101200000221184602F0C0FB0346002B01D000F07B
:101210001BFA00BF5037BD4680BD00BF00380240FA
:101220000070004080B584B000AF3B4600221A60D9
:101230005A609A60DA60214B214A1A601F4B0022E3
:101240005A601E4B00229A601C4B00221A611B4BF5
:1012500000221A76194B002283F82020174B002217
:10126000DA62164B174A9A62144B0022DA60134B6B
:101270000122DA61114B002283F830200F4B01224A
:101280005A610E4800F001FF0346002B01D000F028
:10129000DBF90F233B6001237B600023BB603B46EF
:1012A0001946064801F066F80346002B01D000F00D
:1012B000CBF900BF1037BD4680BD00BF78000020CD
:1012C000002001400100000F80B500AF064B074A27
:1012D0001A60054802F038FD0346002B01D000F0EB
:1012E000B3F900BF80BD00BFC00000200008065059
:1012F00080B58EB000AF07F1280300221A605A6053
:101300009A60DA6007F1200300221A605A603B1DE0
:1013100000221A605A609A60DA601A615A619A6112
:101320002C4B2D4A1A602B4B00225A60294B00226D
:101330009A60284B6222DA60264B00221A61254B04
:1013400000229A61234802F047FE0346002B01D099
:1013500000F07AF94FF48053BB6207F12803194675
:101360001C4803F09FFB0346002B01D000F06CF9F2
:10137000184802F0F1FE0346002B01D000F064F99A
:1013800000233B6200237B6207F1200319461148CA
:1013900002F092FD0346002B01D000F055F96023C6
:1013A0007B600223BB600023FB6000237B613B1D4D
:1013B00000221946074803F0B3FA0346002B01D078
:1013C00000F042F9034800F061FA00BF3837BD462B
:1013D00080BD00BFD00000200004004080B500AFF9
:1013E0000E4B0F4A1A600D4B41F63F725A600B4B81
:1013F00000229A60094B42F20F72DA60074B00221A
:101400001A61064B00229A61044802F0E5FD03468A
:10141000002B01D000F018F900BF80BD180100209A
:101420000020004080B500AF114B124A1A60104BEB
:101430004FF4E1325A600E4B00229A600C4B0022AE
:10144000DA600B4B00221A61094B0C225A61084BDF
:1014500000229A61064B0022DA61054804F007F881
:101460000346002B01D000F0EFF800BF80BD00BFA5
:10147000C00100200048004080B582B000AF0023CA
:101480007B60104B1B6B0F4A43F4001313630D4B2F
:101490001B6B03F400137B607B68002200210C208F
:1014A00001F061FA0C2001F07AFA002200210F20ED
:1014B00001F059FA0F2001F072FA00BF0837BD465B
:1014C00080BD00BF0038024080B58AB000AF07F190
:1014D000140300221A605A609A60DA601A610023CD
:1014E0003B61264B1B6B254A43F080031363234B60
:1014F0001B6B03F080033B613B690023FB601F4BC8
:101500001B6B1E4A43F0040313631C4B1B6B03F05D
:101510000403FB60FB680023BB60184B1B6B174A7E
:1015200043F001031363154B1B6B03F00103BB6016
:10153000BB6800237B60114B1B6B104A43F0020316
:1015400013630E4B1B6B03F002037B607B6800226E
:1015500003210B4801F06CFF03237B610123BB6176
:101560000023FB6100233B6207F114031946044882
:1015700001F0C2FD00BF2837BD4680BD00380240E3
:101580000008024080B582B000AF78607B681B68BD
:10159000064A934206D10021054802F0FFFF054BA1
:1015A00001221A7000BF0837BD4680BD000400400C
:1015B000D00000206802002080B582B000AF7860C3
:1015C0007B681B68084A934209D1084802F0E6FB91
:1015D000074B01221A700221064801F042FF00BFAA
:1015E0000837BD4680BD00BF00200040C00000207D
:1015F000690200200008024080B483B000AF786028
:101600003960044B01221A7000BF0C37BD465DF8EB
:10161000047B70476A02002080B582B000AF78601A
:101620007B681B68064A934206D13B1D184600F0B2
:101630007FFE0346034A136000BF0837BD4680BDE6
:10164000002001406C02002080B400AF72B600BFE1
:10165000FEE7000080B483B000AF00237B60104B36
:101660005B6C0F4A43F4804353640D4B5B6C03F493
:1016700080437B607B6800233B60094B1B6C084AFE
:1016800043F080531364064B1B6C03F080533B60A4
:101690003B6800BF0C37BD465DF8047B704700BF58
:1016A0000038024080B58AB000AF786007F11403BB
:1016B00000221A605A609A60DA601A617B681B68BF
:1016C0001B4A93422FD100233B611A4B5B6C194A92
:1016D00043F480735364174B5B6C03F480733B617A
:1016E0003B690023FB60134B1B6B124A43F004035E
:1016F0001363104B1B6B03F00403FB60FB68202398
:101700007B610323BB610023FB6107F114031946CE
:10171000094801F0F1FC00220021122001F023F918
:10172000122001F03CF900BF2837BD4680BD00BF44
:1017300000200140003802400008024080B584B01B
:1017400000AF78607B681B680E4A934215D1002376
:10175000FB600D4B5B6B0C4A43F0400353630A4B39
:101760005B6B03F04003FB60FB680022002150200C
:1017700001F0F9F8502001F012F900BF1037BD4612
:1017800080BD00BF000806500038024080B584B01C
:1017900000AF78607B681B68374A93424CD10023C6
:1017A000FB60364B1B6C354A43F002031364334B2A
:1017B0001B6C03F00203FB60FB68314B314A1A607B
:1017C0002F4B4FF020625A602D4B40229A602C4BD9
:1017D0000022DA602A4B4FF480621A61284B4FF4E2
:1017E00000625A61264B4FF400529A61244B00224A
:1017F000DA61234B00221A62214B00225A622048F0
:1018000001F0E8F80346002B01D0FFF71DFF7B68CD
:101810001B4A5A621A4A7B6893637B68184A9A6328
:10182000174A7B689363002200211D2001F09BF87A
:101830001D2001F0B4F81AE07B681B68124A93423D
:1018400015D10023BB600D4B1B6C0C4A43F4807315
:1018500013640A4B1B6C03F48073BB60BB680022EB
:1018600000212D2001F07FF82D2001F098F800BF15
:101870001037BD4680BD00BF000400400038024064
:1018800060010020706002400020004080B588B0F8
:1018900000AF786007F10C0300221A605A609A606A
:1018A000DA601A617B681B68124A93421DD10023DB
:1018B000BB60114B1B6B104A43F0010313630E4BCB
:1018C0001B6B03F00103BB60BB684023FB6002237A
:1018D0003B6100237B610023BB610223FB6107F1B5
:1018E0000C031946054801F007FC00BF2037BD4630
:1018F00080BD00BF000400400038024000000240EC
:1019000080B58AB000AF786007F1140300221A6036
:101910005A609A60DA601A617B681B68304A9342A9
:101920005AD100233B612F4B1B6C2E4A43F480237A
:1019300013642C4B1B6C03F480233B613B69002335
:10194000FB60284B1B6B274A43F002031363254BB4
:101950001B6B03F00203FB60FB684FF440637B6189
:101960000223BB610023FB6103233B6207237B62ED
:1019700007F1140319461C4801F0BEFB1B4B1C4A1F
:101980001A601A4B4FF000625A60184B00229A609E
:10199000164B0022DA60154B4FF480621A61134B2C
:1019A00000225A61114B00229A61104B0022DA6129
:1019B0000E4B00221A620D4B00225A620B4801F0B6
:1019C00009F80346002B01D0FFF73EFE7B68074A6B
:1019D000DA63064A7B68936300BF2837BD4680BD43
:1019E0000048004000380240000402400802002085
:1019F0002860024080B400AFFEE780B400AFFEE78D
:101A000080B400AFFEE780B400AFFEE780B400AF63
:101A1000FEE780B400AF00BFBD465DF8047B7047B1
:101A200080B400AF00BFBD465DF8047B704780B452
:101A300000AF00BFBD465DF8047B704780B500AFC6
:101A400004F072F900BF80BD80B500AF024801F01C
:101A5000E9F800BF80BD00BF0802002080B500AFDC
:101A6000024801F0DFF800BF80BD00BF6001002028
:101A700080B500AF024800F04BFB00BF80BD00BF47
:101A80007800002080B500AF024802F059FE00BF88
:101A900080BD00BFD000002080B500AF024802F03A
:101AA0004FFE00BF80BD00BF1801002080B500AF11
:101AB000024802F0A2F900BF80BD00BFC0000020B4
:101AC00080B586B000AF7860144A154BD31A7B619D
:101AD0007B693B61134B1B68002B02D1114B124AEF
:101AE0001A60104B1A687B6813443A699A4207D20D
:101AF00004F086F903460C221A604FF0FF3309E028
:101B0000084B1B68FB60074B1A687B681344054A47
:101B10001360FB6818461837BD4680BD00000220E0
:101B20000004000070020020C003002080B400AF59
:101B3000064BD3F88830054A43F47003C2F8883066
:101B400000BFBD465DF8047B704700BF00ED00E0BC
:101B500090B589B000AFF860B9607A603B601C4B0B
:101B600007F110040FCB07C42380FB687A685A6022
:101B7000FB68BA681A60FB683A689A60FB683A8E3C
:101B80009A810023FB8307E0FB8BFA681344002251
:101B90009A73FB8B0133FB83FA8BFB689B89194695
:101BA0000B465B000B449A42EEDBFB685C6807F176
:101BB00010031846FFF778F803469AB207F11001B0
:101BC0006423204603F0A3FC00BF2437BD4690BD2C
:101BD0001C790008B0B598B000AF7860084611468F
:101BE0001A4603467B800B467B7013463B707B682E
:101BF0009B897A889A4280F08B807B6893F8323098
:101C0000C3F15A0307EE903AF8EEE77AC7ED177A78
:101C10009FED417AD7ED177A27EE277ADFED3F6AFD
:101C2000C7EE267AC7ED177A7B781846FEF722FCB6
:101C300004460D46F86DFEF72FFC02460B4643ECBA
:101C4000102B04F059FD53EC102B20462946FEF7CB
:101C5000A5FD02460B4610461946FEF787FE0346D1
:101C60007B703B781846FEF705FC04460D46F86D80
:101C7000FEF712FC02460B4643EC102B04F03CFD31
:101C800053EC102B20462946FEF788FD02460B46F2
:101C900010461946FEF76AFE03463B7097F870300F
:101CA0001846FEF7E7FB04460D46F86DFEF7F4FB19
:101CB00002460B4643EC102B04F01EFD53EC102B98
:101CC00020462946FEF76AFD02460B461046194695
:101CD000FEF74CFE034687F870307A8813465B00A7
:101CE00013447A6813443A789A737A8813465B00EF
:101CF000134401337A6813447A789A737A881346C6
:101D00005B00134402337A68134497F870209A7387
:101D100000BF6037BD46B0BDD00F4940000034431E
:101D200080B483B000AF78600B46FB70FB782D2B3E
:101D300004D97B682D2283F8322003E07B68FA788F
:101D400083F8322000BF0C37BD465DF8047B704736
:101D50002DE9F04397B000AF78606B461E467B6874
:101D60009B891A4613465B001344DB0003F13C01D8
:101D70004B1EBB640A460023904699464FF0000272
:101D80004FF000034FEA091343EA18734FEA0812B1
:101D90000A46002314461D464FF000024FF0000390
:101DA0002B0143EA147322010B465B000733DB0867
:101DB000DB00ADEB030D6B4601335B085B007B641E
:101DC00000237B6500233B640023FB870023A7F8E7
:101DD000523058E0B7F8522013465B0013440133E9
:101DE0007A6813449B7B87F83D30B7F8522013463E
:101DF0005B0013447A6813449B7B87F83C30B7F848
:101E0000522013465B00134402337A6813449B7BD1
:101E100087F83B3097F83C301A0497F83D301B02A6
:101E20001A4397F83B3013433B641823A7F850300C
:101E300020E00023A7F84E30B7F85030013B3A6C51
:101E400022FA03F303F00103002B03D03D23A7F88C
:101E50004E3002E01F23A7F84E307B6D5A1C7A6586
:101E60007A6CB7F84E1022F81310B7F85030013BD7
:101E7000A7F85030B7F85030002BDAD1B7F852300D
:101E80000133A7F852307B689B89B7F852209A42F9
:101E9000A0D3002387F84D300BE07B6D5A1C7A6588
:101EA0007A6C002122F8131097F84D30013387F82F
:101EB0004D3097F84D303B2BEFD97B6818687B6D20
:101EC0009BB27A6C002102F0A1F9034687F84C30EE
:101ED0000DE0642003F048FF7B6818687B6D9BB2BF
:101EE0007A6C002102F092F9034687F84C3097F89B
:101EF0004C30002BEDD1B54600BF5C37BD46BDE888
:101F0000F083000090B599B000AF78607B689A6864
:101F100007F10C033E49184603F04AFF7B685C68F2
:101F200007F10C031846FEF7BFFE03469AB207F10D
:101F30000C016423204603F0EAFA7B689B891A4669
:101F400007F10C033349184603F032FF7B685C68E5
:101F500007F10C031846FEF7A7FE03469AB207F1F5
:101F60000C016423204603F0D2FA7B6893F83230E8
:101F70001A4607F10C032849184603F019FF7B683D
:101F80005C6807F10C031846FEF78EFE03469AB212
:101F900007F10C016423204603F0B9FA0023A7F8E7
:101FA0005E301FE0B7F85E307A6813449B7B1A46B8
:101FB00007F10C031949184603F0FAFE7B685C68C8
:101FC00007F10C031846FEF76FFE03469AB207F1BD
:101FD0000C016423204603F09AFAB7F85E3001330F
:101FE000A7F85E30B7F85E207B689B8919460B46E0
:101FF0005B000B449A42D5DB7B685868642302225D
:10200000074903F084FA00BF6437BD4690BD00BFA6
:102010004079000850790008607900087479000858
:102020007C790008DFF834D0FFF780FD0C480D49BB
:102030000D4A002302E0D458C4500433C4188C4223
:10204000F9D30A4A0A4C002301E013600432A24289
:10205000FBD303F0DBFEFEF733FF704700000220E6
:10206000000000205C000020C07B00085C00002015
:10207000C0030020FEE780B483B000AF786000BFEB
:102080000C37BD465DF8047B704780B584B000AF67
:1020900078600023FB737B68002B01D1012333E0C0
:1020A0007B681B6C002B09D17868FFF7FBFA7B6813
:1020B00000225A647B68002283F83C207B681B6CFA
:1020C00003F01003002B18D17B681B6C23F488539A
:1020D00023F0020343F002027B681A64786800F080
:1020E0006BFA7B6800225A647B681B6C23F0030345
:1020F00043F001027B681A6401E00123FB737B68F3
:10210000002283F83C20FB7B18461037BD4680BD7B
:1021100080B586B000AF786000237B6100233B610F
:102120007B681B681B68FB607B681B685B68BB6027
:10213000FB6803F002037B61BB6803F020033B6193
:102140007B69002B49D03B69002B46D07B681B6C18
:1021500003F01003002B05D17B681B6C43F4007265
:102160007B681A647B681B689B6803F04053002BF4
:102170002BD17B681B7E002B27D17B681B68DB6A19
:1021800003F47003002B06D07B681B689B6803F484
:102190008063002B19D17B681B685A687B681B68B9
:1021A00022F020025A607B681B6C23F480727B68EB
:1021B0001A647B681B6C03F48053002B05D17B6889
:1021C0001B6C43F001027B681A647868FFF724FAFD
:1021D0007B681B686FF012021A60FB6803F004034F
:1021E0007B61BB6803F080033B617B69002B57D0A8
:1021F0003B69002B54D07B681B6C03F01003002B51
:1022000005D17B681B6C43F400527B681A647B68C1
:102210001B689B6803F44013002B39D17B681B6853
:102220009B6B03F44013002B06D07B681B689B68F4
:1022300003F48063002B2BD17B681B685B6803F47D
:102240008063002B24D17B681B689B6803F040539C
:10225000002B1DD17B681B7E002B19D17B681B686E
:102260005A687B681B6822F080025A607B681B6C8E
:1022700023F480527B681A647B681B6C03F48073C0
:10228000002B05D17B681B6C43F001027B681A644C
:102290007868FFF7F0FE7B681B686FF00C021A602D
:1022A000FB6803F001037B61BB6803F040033B6103
:1022B0007B69002B17D03B69002B14D07B681B680F
:1022C0001B6803F00103012B0DD17B681B6C43F4E9
:1022D00080327B681A64786800F037F87B681B6886
:1022E0006FF001021A60FB6803F020037B61BB689A
:1022F00003F080633B617B69002B15D03B69002BA9
:1023000012D07B685B6C43F002027B685A647B6886
:102310001B686FF020021A60786800F020F87B6874
:102320001B686FF020021A6000BF1837BD4680BDE1
:1023300080B483B000AF78607B681B68DB6C1846A4
:102340000C37BD465DF8047B704780B483B000AFA6
:10235000786000BF0C37BD465DF8047B704780B4E1
:1023600083B000AF786000BF0C37BD465DF8047BDA
:102370007047000080B485B000AF786039600023FA
:10238000BB607B6893F83C30012B01D1022305E14F
:102390007B68012283F83C203B681B68092B25D908
:1023A0007B681B68D9683B681B689BB21A4613465A
:1023B0005B0013441E3B072202FA03F3DA437B68F7
:1023C0001B680A40DA607B681B68D9683B689A68BA
:1023D0003B681B689BB2184603465B0003441E3BE8
:1023E0009A407B681B680A43DA6022E07B681B68BE
:1023F00019693B681B689BB21A4613465B0013447D
:10240000072202FA03F3DA437B681B680A401A6169
:102410007B681B6819693B689A683B681B689BB2BC
:10242000184603465B0003449A407B681B680A43D6
:102430001A613B685B68062B24D87B681B68596B64
:102440003B685A6813469B001344053B1F2202FA5F
:1024500003F3DA437B681B680A405A637B681B6896
:10246000596B3B681B689BB218463B685A68134619
:102470009B001344053B00FA03F27B681B680A4388
:102480005A634CE03B685B680C2B24D87B681B6864
:10249000196B3B685A6813469B001344233B1F2269
:1024A00002FA03F3DA437B681B680A401A637B680D
:1024B0001B68196B3B681B689BB218463B685A68DF
:1024C00013469B001344233B00FA03F27B681B680E
:1024D0000A431A6323E07B681B68D96A3B685A6821
:1024E00013469B001344413B1F2202FA03F3DA43D5
:1024F0007B681B680A40DA627B681B68D96A3B68A4
:102500001B689BB218463B685A6813469B001344ED
:10251000413B00FA03F27B681B680A43DA62224BF4
:10252000FB607B681B68214A934209D13B681B68AA
:10253000122B05D1FB685B6843F48002FB685A608C
:102540007B681B68194A934223D13B681B68102B98
:1025500003D03B681B68112B1BD1FB685B6843F4FD
:102560000002FB685A603B681B68102B11D1104BAE
:102570001B68104AA2FB03239A0C13469B001344CA
:102580005B00BB6002E0BB68013BBB60BB68002B2B
:10259000F9D17B68002283F83C20002318461437C9
:1025A000BD465DF8047B70470023014000200140D8
:1025B0000000002083DE1B4380B485B000AF78604C
:1025C000794BFB60FB685B6823F44032FB685A6020
:1025D000FB685A687B685B681A43FB685A607B68D3
:1025E0001B685A687B681B6822F480725A607B689B
:1025F0001B6859687B681B691A027B681B680A4361
:102600005A607B681B685A687B681B6822F04072BE
:102610005A607B681B6859687B689A687B681B688E
:102620000A435A607B681B689A687B681B6822F4BF
:1026300000629A607B681B6899687B68DA687B68CF
:102640001B680A439A607B689B6A584A934222D06F
:102650007B681B689A687B681B6822F070629A60CE
:102660007B681B6899687B689A6A7B681B680A4369
:102670009A607B681B689A687B681B6822F04052EE
:102680009A607B681B6899687B68DA6A7B681B685C
:102690000A439A600FE07B681B689A687B681B6836
:1026A00022F070629A607B681B689A687B681B687E
:1026B00022F040529A607B681B689A687B681B68AE
:1026C00022F002029A607B681B6899687B681B7E17
:1026D0005A007B681B680A439A607B6893F8203035
:1026E000002B1BD07B681B685A687B681B6842F410
:1026F00000625A607B681B685A687B681B6822F41A
:1027000060425A607B681B6859687B685B6A013B62
:102710005A037B681B680A435A6007E07B681B68A2
:102720005A687B681B6822F400625A607B681B68E9
:10273000DA6A7B681B6822F47002DA627B681B68C5
:10274000D96A7B68DB69013B1A057B681B680A4311
:10275000DA627B681B689A687B681B6822F40072E7
:102760009A607B681B6899687B6893F830305A02DE
:102770007B681B680A439A607B681B689A687B6861
:102780001B6822F480629A607B681B6899687B688A
:102790005B699A027B681B680A439A6000BF143722
:1027A000BD465DF8047B7047002301400100000F27
:1027B00080B485B000AF78607B6803F00703FB60EE
:1027C0000C4BDB68BB60BA684FF6FF031340BB607D
:1027D000FB681A02BB68134343F0BF6343F4003342
:1027E000BB60044ABB68D36000BF1437BD465DF8C8
:1027F000047B704700ED00E080B400AF044BDB6861
:102800001B0A03F007031846BD465DF8047B7047BA
:1028100000ED00E080B483B000AF0346FB7197F990
:102820000730002B0BDBFB7903F01F02074997F9F8
:1028300007305B09012000FA02F241F8232000BFB3
:102840000C37BD465DF8047B704700BF00E100E037
:1028500080B483B000AF03463960FB7197F907304D
:10286000002B0ADB3B68DAB20C4997F907301201FA
:10287000D2B20B4483F800230AE03B68DAB208497D
:10288000FB7903F00F03043B1201D2B20B441A761A
:1028900000BF0C37BD465DF8047B704700E100E0E7
:1028A00000ED00E080B489B000AFF860B9607A60F4
:1028B000FB6803F00703FB61FB69C3F10703042B0B
:1028C00028BF0423BB61FB690433062B02D9FB69D3
:1028D000033B00E000237B614FF0FF32BB6902FA4B
:1028E00003F3DA43BB681A407B699A404FF0FF312B
:1028F0007B6901FA03F3D9437B680B401343184605
:102900002437BD465DF8047B7047000080B582B077
:1029100000AF78607B68013BB3F1807F01D3012376
:102920000FE00A4A7B68013B53600F214FF0FF30F4
:10293000FFF78EFF054B00229A60044B07221A60B6
:10294000002318460837BD4680BD00BF10E000E0F8
:1029500080B582B000AF78607868FFF729FF00BFCC
:102960000837BD4680BD80B586B000AF0346B9606C
:102970007A60FB7300237B61FFF73EFF78617A6822
:10298000B9687869FFF78EFF024697F90F30114654
:102990001846FFF75DFF00BF1837BD4680BD80B504
:1029A00082B000AF0346FB7197F907301846FFF776
:1029B00031FF00BF0837BD4680BD80B582B000AF93
:1029C00078607868FFF7A2FF034618460837BD46CF
:1029D00080BD000080B586B000AF786000237B61C9
:1029E00003F0B6F938617B68002B01D1012399E02F
:1029F0007B68022283F835207B68002283F834202C
:102A00007B681B681A687B681B6822F001021A60E9
:102A10000FE003F09DF902463B69D31A052B08D954
:102A20007B6820225A657B68032283F835200323C4
:102A300078E07B681B681B6803F00103002BE8D17A
:102A40007B681B681B687B617A69384B13407B612C
:102A50007B685A687B689B681A437B68DB681A430B
:102A60007B681B691A437B685B691A437B689B69B7
:102A70001A437B68DB691A437B681B6A13437A69D4
:102A800013437B617B685B6A042B07D17B68DA6A3E
:102A90007B681B6B13437A6913437B617B681B68FC
:102AA0007A691A607B681B685B697B617B6923F0CC
:102AB00007037B617B685B6A7A6913437B617B6890
:102AC0005B6A042B17D17B689B6A7A6913437B612D
:102AD0007B68DB6A002B0ED0786800F091FA034621
:102AE000002B08D07B6840225A657B68012283F85E
:102AF0003520012316E07B681B687A695A61786883
:102B000000F048FA0346FB607B68DB6D3F229A4089
:102B1000FB689A607B6800225A657B68012283F813
:102B20003520002318461837BD4680BD3F8010F081
:102B300080B586B000AFF860B9607A603B60002372
:102B4000FB75FB689B6D3B61FB6893F83430012B90
:102B500001D1022340E0FB68012283F83420FB68A6
:102B600093F83530DBB2012B2FD1FB68022283F8BA
:102B70003520FB6800225A653B687A68B968F868B6
:102B800000F0DAF9FB68DB6D3F229A403B699A60FE
:102B9000FB681B681A68FB681B6842F016021A6023
:102BA000FB681B6C002B07D0FB681B681A68FB686E
:102BB0001B6842F008021A60FB681B681A68FB6811
:102BC0001B6842F001021A6005E0FB68002283F8EE
:102BD00034200223FB75FB7D18461837BD4680BDA7
:102BE00080B483B000AF78607B6893F83530DBB297
:102BF000022B04D07B6880225A6501230CE07B689D
:102C0000052283F835207B681B681A687B681B687F
:102C100022F001021A60002318460C37BD465DF809
:102C2000047B704780B586B000AF78600023BB603E
:102C30008E4B1B688E4AA2FB03239B0A7B617B6839
:102C40009B6D3B613B691B68FB607B68DB6D082209
:102C50009A40FB681340002B1AD07B681B681B68E6
:102C600003F00403002B13D07B681B681A687B6891
:102C70001B6822F004021A607B68DB6D08229A4010
:102C80003B699A607B685B6D43F001027B685A6523
:102C90007B68DB6D01229A40FB681340002B12D049
:102CA0007B681B685B6903F08003002B0BD07B689B
:102CB000DB6D01229A403B699A607B685B6D43F053
:102CC00002027B685A657B68DB6D04229A40FB68D0
:102CD0001340002B12D07B681B681B6803F00203B3
:102CE000002B0BD07B68DB6D04229A403B699A6015
:102CF0007B685B6D43F004027B685A657B68DB6D23
:102D000010229A40FB681340002B43D07B681B685D
:102D10001B6803F00803002B3CD07B68DB6D10229E
:102D20009A403B699A607B681B681B6803F48023A8
:102D3000002B18D07B681B681B6803F40023002B52
:102D400008D17B681B6C002B24D07B681B6C7868D7
:102D500098471FE07B689B6C002B1BD07B689B6CAB
:102D60007868984716E07B681B681B6803F48073DB
:102D7000002B07D17B681B681A687B681B6822F0F0
:102D800008021A607B681B6C002B03D07B681B6CED
:102D9000786898477B68DB6D20229A40FB68134077
:102DA000002B00F08F807B681B681B6803F010030A
:102DB000002B00F087807B68DB6D20229A403B6906
:102DC0009A607B6893F83530DBB2052B36D17B688F
:102DD0001B681A687B681B6822F016021A607B6801
:102DE0001B685A697B681B6822F080025A617B6805
:102DF0001B6C002B03D17B689B6C002B07D07B687E
:102E00001B681A687B681B6822F008021A607B68DE
:102E1000DB6D3F229A403B699A607B68012283F810
:102E200035207B68002283F834207B681B6D002BE3
:102E30007ED07B681B6D7868984779E07B681B685B
:102E40001B6803F48023002B1DD07B681B681B6864
:102E500003F40023002B0DD17B685B6C002B31D079
:102E60007B685B6C786898472CE000BF000000200E
:102E7000B5814E1B7B68DB6B002B23D07B68DB6B43
:102E8000786898471EE07B681B681B6803F48073B2
:102E9000002B0FD17B681B681A687B681B6822F0C7
:102EA00010021A607B68012283F835207B680022BB
:102EB00083F834207B68DB6B002B03D07B68DB6BF3
:102EC000786898477B685B6D002B32D07B685B6DC0
:102ED00003F00103002B22D07B68052283F8352004
:102EE0007B681B681A687B681B6822F001021A6005
:102EF000BB680133BB607A699A4207D37B681B6861
:102F00001B6803F00103002BF2D100E000BF7B68D7
:102F1000012283F835207B68002283F834207B6807
:102F2000DB6C002B05D07B68DB6C7868984700E091
:102F300000BF1837BD4680BD80B485B000AFF860D3
:102F4000B9607A603B60FB681B681A68FB681B68A5
:102F500022F480221A60FB681B683A685A60FB689A
:102F60009B68402B08D1FB681B687A689A60FB68F5
:102F70001B68BA68DA6007E0FB681B68BA689A6089
:102F8000FB681B687A68DA6000BF1437BD465DF8DD
:102F9000047B704780B485B000AF78607B681B68A5
:102FA000DBB2103B144AA2FB03231B09FB60134A4C
:102FB000FB6813441B781A467B68DA65FB68032BB1
:102FC00009D97B681B6823F47F7323F003031A1D60
:102FD0007B689A6507E07B681B6823F47F7323F0A6
:102FE00003037A6893657B689B6D18461437BD466A
:102FF0005DF8047B704700BFABAAAAAA98790008C5
:1030000080B485B000AF78600023FB737B689B6A57
:10301000BB607B689B69002B1FD1BB68032B56D814
:1030200001A252F823F000BF393000084B300008ED
:1030300039300008CF3000087B68DB6A03F080730A
:10304000002B46D00123FB7343E07B68DB6AB3F1BE
:10305000C07F40D10123FB733DE07B689B69B3F5E2
:10306000005F21D1BB68032B37D801A252F823F0AF
:10307000813000088730000881300008993000084E
:103080000123FB7330E07B68DB6A03F08073002B65
:1030900025D00123FB7322E07B68DB6AB3F1C07F9C
:1030A0001FD10123FB731CE0BB68022B03D9BB6853
:1030B000032B03D018E00123FB7315E07B68DB6A68
:1030C00003F08073002B0ED00123FB730BE000BFD5
:1030D0000AE000BF08E000BF06E000BF04E000BF58
:1030E00002E000BF00E000BFFB7B18461437BD467E
:1030F0005DF8047B704700BF80B489B000AF786092
:10310000396000237B6100233B610023BB61002306
:10311000FB616BE10122FB6902FA03F37B613B680F
:103120001B687A6913403B613A697B699A4240F0B7
:103130005A813B685B6803F00303012B05D03B68B1
:103140005B6803F00303022B30D17B689B68BB6193
:10315000FB695B00032202FA03F3DB43BA69134005
:10316000BB613B68DA68FB695B0002FA03F3BA698A
:103170001343BB617B68BA699A607B685B68BB611B
:103180000122FB6902FA03F3DB43BA691340BB6116
:103190003B685B681B0903F00102FB6902FA03F359
:1031A000BA691343BB617B68BA695A603B685B6864
:1031B00003F00303032B17D07B68DB68BB61FB695B
:1031C0005B00032202FA03F3DB43BA691340BB61DD
:1031D0003B689A68FB695B0002FA03F3BA69134320
:1031E000BB617B68BA69DA603B685B6803F0030324
:1031F000022B23D1FB69DA087B68083253F82230AE
:10320000BB61FB6903F007039B000F2202FA03F383
:10321000DB43BA691340BB613B681A69FB6903F081
:1032200007039B0002FA03F3BA691343BB61FB690E
:10323000DA087B680832B96943F822107B681B689A
:10324000BB61FB695B00032202FA03F3DB43BA694B
:103250001340BB613B685B6803F00302FB695B00E2
:1032600002FA03F3BA691343BB617B68BA691A6057
:103270003B685B6803F44033002B00F0B48000230C
:10328000FB60604B5B6C5F4A43F4804353645D4B6F
:103290005B6C03F48043FB60FB685B4AFB699B0843
:1032A000023352F82330BB61FB6903F003039B0038
:1032B0000F2202FA03F3DB43BA691340BB617B6858
:1032C000524A93422BD07B68514A934225D07B6867
:1032D000504A93421FD07B684F4A934219D07B6873
:1032E0004E4A934213D07B684D4A93420DD07B687F
:1032F0004C4A934207D07B684B4A934201D1072343
:103300000EE008230CE006230AE0052308E004236E
:1033100006E0032304E0022302E0012300E000238F
:10332000FA6902F0030292009340BA691343BB6149
:103330003549FB699B080233BA6941F823203B4BAE
:103340009B68BB613B69DB43BA691340BB613B6867
:103350005B6803F48013002B03D0BA693B69134305
:10336000BB61324ABB699360304BDB68BB613B6930
:10337000DB43BA691340BB613B685B6803F400132D
:10338000002B03D0BA693B691343BB61274ABB6971
:10339000D360264B5B68BB613B69DB43BA69134072
:1033A000BB613B685B6803F40033002B03D0BA6950
:1033B0003B691343BB611D4ABB6953601B4B1B68D0
:1033C000BB613B69DB43BA691340BB613B685B6827
:1033D00003F48033002B03D0BA693B691343BB610C
:1033E000124ABB691360FB690133FB61FB690F2B58
:1033F0007FF690AE00BF00BF2437BD465DF8047B6A
:10340000704700BF00380240003801400000024011
:103410000004024000080240000C0240001002407C
:103420000014024000180240001C0240003C014011
:1034300080B483B000AF78600B467B8013467B700E
:103440007B78002B03D07A887B689A6103E07B88C5
:103450001A047B689A6100BF0C37BD465DF8047B97
:10346000704780B485B000AF78600B467B807B6886
:103470005B69FB607A88FB6813401A04FB68D943D8
:103480007B880B401A437B689A6100BF1437BD46A6
:103490005DF8047B7047000080B586B000AF7860AF
:1034A0007B68002B01D1012367E27B681B6803F076
:1034B0000103002B75D0884B9B6803F00C03042B91
:1034C0000CD0854B9B6803F00C03082B12D1824B68
:1034D0005B6803F48003B3F5800F0BD17E4B1B6850
:1034E00003F40033002B5BD07B685B68002B57D163
:1034F000012342E27B685B68B3F5803F06D1764BDF
:103500001B68754A43F4803313601DE07B685B6879
:10351000B3F5A02F0CD1704B1B686F4A43F4802386
:1035200013606D4B1B686C4A43F4803313600BE0EF
:10353000694B1B68684A23F480331360664B1B6831
:10354000654A23F4802313607B685B68002B13D0EB
:1035500002F0FEFB386108E002F0FAFB02463B692C
:10356000D31A642B01D9032307E25B4B1B6803F4D6
:103570000033002BF0D014E002F0EAFB386108E0E1
:1035800002F0E6FB02463B69D31A642B01D9032300
:10359000F3E1514B1B6803F40033002BF0D100E042
:1035A00000BF7B681B6803F00203002B63D04A4B0B
:1035B0009B6803F00C03002B0BD0474B9B6803F078
:1035C0000C03082B1CD1444B5B6803F48003002BD5
:1035D00016D1414B1B6803F00203002B05D07B681A
:1035E000DB68012B01D00123C7E13B4B1B6823F0B3
:1035F000F8027B681B69DB00374913430B603AE034
:103600007B68DB68002B20D0344B01221A6002F06B
:103610009FFB386108E002F09BFB02463B69D31A2E
:10362000022B01D90323A8E12B4B1B6803F00203F3
:10363000002BF0D0284B1B6823F0F8027B681B6935
:10364000DB00254913430B6015E0244B00221A6070
:1036500002F07EFB386108E002F07AFB02463B692B
:10366000D31A022B01D9032387E11B4B1B6803F0FC
:103670000203002BF0D17B681B6803F00803002BCA
:1036800036D07B685B69002B16D0154B01221A607F
:1036900002F05EFB386108E002F05AFB02463B692B
:1036A000D31A022B01D9032367E10B4B5B6F03F0A5
:1036B0000203002BF0D01BE0094B00221A6002F03D
:1036C00047FB38610EE002F043FB02463B69D31A28
:1036D000022B07D9032350E1003802400000474283
:1036E000800E4742884B5B6F03F00203002BEAD148
:1036F0007B681B6803F00403002B00F09780002315
:10370000FB75814B1B6C03F08053002B0FD1002302
:10371000BB607D4B1B6C7C4A43F0805313647A4B37
:103720001B6C03F08053BB60BB680123FB75774BB8
:103730001B6803F48073002B18D1744B1B68734A09
:1037400043F48073136002F003FB386108E002F079
:10375000FFFA02463B69D31A022B01D903230CE17D
:103760006A4B1B6803F48073002BF0D07B689B6866
:10377000012B06D1644B1B6F634A43F001031367AF
:103780001CE07B689B68052B0CD15F4B1B6F5E4A6E
:1037900043F0040313675C4B1B6F5B4A43F0010368
:1037A00013670BE0584B1B6F574A23F00103136755
:1037B000554B1B6F544A23F0040313677B689B68C7
:1037C000002B15D002F0C4FA38610AE002F0C0FA0A
:1037D00002463B69D31A41F28832934201D903234E
:1037E000CBE0494B1B6F03F00203002BEED014E03B
:1037F00002F0AEFA38610AE002F0AAFA02463B692A
:10380000D31A41F28832934201D90323B5E03E4BEB
:103810001B6F03F00203002BEED1FB7D012B05D1C2
:10382000394B1B6C384A23F0805313647B689B69C7
:10383000002B00F0A180344B9B6803F00C03082B95
:103840005CD07B689B69022B41D1314B00221A600E
:1038500002F07EFA386108E002F07AFA02463B692B
:10386000D31A022B01D9032387E0274B1B6803F0EF
:103870000073002BF0D17B68DA697B681B6A1A43FE
:103880007B685B6A9B011A437B689B6A5B08013B10
:103890001B041A437B68DB6A1B061B4913434B60FE
:1038A0001B4B01221A6002F053FA386108E002F063
:1038B0004FFA02463B69D31A022B01D903235CE07D
:1038C000114B1B6803F00073002BF0D054E0104B39
:1038D00000221A6002F03CFA386108E002F038FA7F
:1038E00002463B69D31A022B01D9032345E0064B5C
:1038F0001B6803F00073002BF0D13DE07B689B69EF
:10390000012B07D1012338E000380240007000404D
:10391000600047421B4B5B68FB607B689B69012B27
:1039200028D0FB6803F480027B68DB699A4221D1CE
:10393000FB6803F03F027B681B6A9A421AD1FA685F
:1039400047F6C07313407A68526A9201934211D1CC
:10395000FB6803F440327B689B6A5B08013B1B04F5
:103960009A4207D1FB6803F070627B68DB6A1B0632
:103970009A4201D0012300E0002318461837BD46C3
:1039800080BD00BF0038024080B584B000AF7860D1
:1039900039607B68002B01D10123CCE0684B1B68A8
:1039A00003F007033A689A420CD9654B3A68D2B2E1
:1039B0001A70634B1B6803F007033A689A4201D000
:1039C0000123B8E07B681B6803F00203002B20D0C2
:1039D0007B681B6803F00403002B05D0594B9B68E0
:1039E000584A43F4E05393607B681B6803F0080374
:1039F000002B05D0534B9B68524A43F460439360BD
:103A0000504B9B6823F0F0027B689B684D49134341
:103A10008B607B681B6803F00103002B44D07B683C
:103A20005B68012B07D1474B1B6803F40033002B65
:103A300019D101237FE07B685B68022B03D07B6890
:103A40005B68032B07D13F4B1B6803F00073002B0F
:103A500009D101236FE03B4B1B6803F00203002BED
:103A600001D1012367E0374B9B6823F003027B6899
:103A70005B68344913438B6002F06AF9F8600AE02E
:103A800002F066F90246FB68D31A41F2883293428B
:103A900001D903234FE02B4B9B6803F00C027B689A
:103AA0005B689B009A42EBD1254B1B6803F0070330
:103AB0003A689A420CD2224B3A68D2B21A70204B22
:103AC0001B6803F007033A689A4201D0012332E0F1
:103AD0007B681B6803F00403002B08D0194B9B681C
:103AE00023F4E0527B68DB68164913438B607B68E4
:103AF0001B6803F00803002B09D0124B9B6823F4CA
:103B000060427B681B69DB000E4913438B6000F049
:103B100021F802460B4B9B681B0903F00F030A496F
:103B2000CB5C22FA03F3094A1360094B1B68184661
:103B300002F0CAF8002318461037BD4680BD00BF0A
:103B4000003C02400038024080790008000000205C
:103B5000040000202DE9B04F90B000AF00237B633C
:103B60000023FB6300233B630023BB63594B9B682B
:103B700003F00C03082B0DD0082B00F2A180002BC2
:103B800002D0042B03D09BE0534BBB639BE0534B11
:103B9000BB6398E04F4B5B6803F03F037B634D4B87
:103BA0005B6803F48003002B28D04A4B5B689B09B9
:103BB00000223B627A623B6AC3F308000021474B54
:103BC00003FB01F2002300FB03F31344434AA0FB71
:103BD0000212FA620A46BA62FA6A1344FB627B6B0B
:103BE0000022BB61FA61D7E90623D7E90A01FCF795
:103BF000DDFE02460B461346FB6353E0354B5B6824
:103C00009B0900223B617A613B69C3F3080A4FF0CC
:103C1000000B52465B464FF000004FF00001590187
:103C200041EAD261500102460B46B2EB0A0863EB4F
:103C30000B094FF000024FF000034FEA891343EAEB
:103C400098634FEA8812B2EB080463EB09054FF062
:103C500000024FF00003EB0043EA5473E200144605
:103C60001D4614EB0A033B6045EB0B037B604FF0F2
:103C700000024FF00003D7E9004529468B02214698
:103C800043EA915321468A02104619467B6B002273
:103C9000BB60FA60D7E90223FCF788FE02460B46B8
:103CA0001346FB630B4B5B681B0C03F003030133F0
:103CB0005B003B63FA6B3B6BB2FBF3F3BB6302E06D
:103CC000054BBB6300BFBB6B18464037BD46BDE824
:103CD000B08F00BF003802400024F400001BB70082
:103CE00080B400AF034B1B681846BD465DF8047BEB
:103CF000704700BF0000002080B500AFFFF7F0FF65
:103D00000246054B9B689B0A03F007030349CB5C03
:103D100022FA03F3184680BD00380240907900086B
:103D200080B500AFFFF7DCFF0246054B9B685B0BDD
:103D300003F007030349CB5C22FA03F3184680BD66
:103D4000003802409079000880B582B000AF7860FA
:103D50007B68002B01D101231CE07B685B79DBB21F
:103D6000002B05D17B6800221A717868FDF7E6FC0C
:103D70007B6802225A717B681B681A687B681B6823
:103D800042F004021A607B6801225A717B680022AB
:103D90009A60002318460837BD4680BD80B485B0C0
:103DA00000AF78600023FB737B681B79012B01D186
:103DB00002231CE07B6801221A717B685B79DBB20D
:103DC000012B0BD17B6802225A717B681B681A6831
:103DD0007B681B6842F008021A6007E07B680022DB
:103DE0001A717B6804229A600123FB73FB7B1846DF
:103DF0001437BD465DF8047B704780B584B000AFD2
:103E000078600023FB607B681B685B68BB60BB68F5
:103E100003F02003002B05D07B6810229A60012359
:103E2000FB6009E0BB6803F04003002B04D07B6813
:103E300008229A600123FB60FB68012B0BD17B6891
:103E400004225A71786800F02CF87B681B686FF0C8
:103E500060025A6022E0BB6803F00103002B1DD012
:103E60007B681B681A687B681B6822F008021A606E
:103E70007B681B689A687B68DA607B685B79DBB279
:103E8000042B0BD07B6801225A717B6800221A71C7
:103E90007B68DB6819467868FDF7AEFB1037BD46D6
:103EA00080BD80B483B000AF786000BF0C37BD46E2
:103EB0005DF8047B7047000080B485B000AF786087
:103EC00039607B6893F83C30012B01D102235AE022
:103ED0007B68012283F83C207B68022283F83D2026
:103EE0007B681B685B68FB607B681B689B68BB60CA
:103EF000FB6823F07003FB603B681B68FA681343A0
:103F0000FB607B681B68FA685A607B681B68214A03
:103F1000934222D07B681B68B3F1804F1DD07B6831
:103F20001B681D4A934218D07B681B681B4A93424A
:103F300013D07B681B681A4A93420ED07B681B68BB
:103F4000184A934209D07B681B68174A934204D0F1
:103F50007B681B68154A93420CD1BB6823F0800331
:103F6000BB603B685B68BA681343BB607B681B68D7
:103F7000BA689A607B68012283F83D207B68002242
:103F800083F83C20002318461437BD465DF8047BB7
:103F9000704700BF000001400004004000080040DE
:103FA000000C0040000401400040014000180040A7
:103FB00080B483B000AF786000BF0C37BD465DF8B9
:103FC000047B704780B483B000AF786000BF0C37CB
:103FD000BD465DF8047B704780B582B000AF786065
:103FE0007B68002B01D1012341E07B6893F83D30D1
:103FF000DBB2002B06D17B68002283F83C20786876
:10400000FDF7C4FB7B68022283F83D207B681A68B9
:104010007B6804331946104600F00EFF7B680122CE
:1040200083F846207B68012283F83E207B680122CA
:1040300083F83F207B68012283F840207B680122BF
:1040400083F841207B68012283F842207B680122AB
:1040500083F843207B68012283F844207B68012297
:1040600083F845207B68012283F83D200023184611
:104070000837BD4680BD000080B485B000AF7860D1
:104080007B6893F83D30DBB2012B01D001234EE079
:104090007B68022283F83D207B681B68DA687B68B6
:1040A0001B6842F00102DA607B681B68234A934276
:1040B00022D07B681B68B3F1804F1DD07B681B68E2
:1040C0001F4A934218D07B681B681E4A934213D044
:1040D0007B681B681C4A93420ED07B681B681B4A96
:1040E000934209D07B681B68194A934204D07B68CD
:1040F0001B68184A934211D17B681B689B6803F0C8
:104100000703FB60FB68062B10D07B681B681A68EE
:104110007B681B6842F001021A6007E07B681B683D
:104120001A687B681B6842F001021A600023184677
:104130001437BD465DF8047B704700BF00000140A6
:104140000004004000080040000C00400004014052
:10415000004001400018004080B582B000AF786098
:104160007B68002B01D1012341E07B6893F83D304F
:10417000DBB2002B06D17B68002283F83C207868F4
:1041800000F039F87B68022283F83D207B681A68CA
:104190007B6804331946104600F04EFE7B6801220E
:1041A00083F846207B68012283F83E207B68012249
:1041B00083F83F207B68012283F840207B6801223E
:1041C00083F841207B68012283F842207B6801222A
:1041D00083F843207B68012283F844207B68012216
:1041E00083F845207B68012283F83D200023184690
:1041F0000837BD4680BD80B483B000AF786000BF93
:104200000C37BD465DF8047B7047000080B586B072
:1042100000AFF860B9607A607B800023FB75BB68F3
:10422000002B09D1FB6893F83E30DBB2022B0CBFA8
:1042300001230023DBB222E0BB68042B09D1FB6819
:1042400093F83F30DBB2022B0CBF01230023DBB21B
:1042500015E0BB68082B09D1FB6893F84030DBB24E
:10426000022B0CBF01230023DBB208E0FB6893F8AC
:104270004130DBB2022B0CBF01230023DBB2002B49
:1042800001D0022371E1BB68002B09D1FB6893F8D0
:104290003E30DBB2012B0CBF01230023DBB222E056
:1042A000BB68042B09D1FB6893F83F30DBB2012BCC
:1042B0000CBF01230023DBB215E0BB68082B09D13A
:1042C000FB6893F84030DBB2012B0CBF01230023C5
:1042D000DBB208E0FB6893F84130DBB2012B0CBF86
:1042E00001230023DBB2002B24D07B68002B02D0FB
:1042F0007B88002B01D1012337E1BB68002B04D15F
:10430000FB68022283F83E2016E0BB68042B04D130
:10431000FB68022283F83F200EE0BB68082B04D123
:10432000FB68022283F8402006E0FB68022283F843
:10433000412001E0012318E1BB680C2B00F2AE80A4
:1043400001A252F823F000BF7D4300089D440008FD
:104350009D4400089D440008C54300089D44000892
:104360009D4400089D4400080D4400089D44000839
:104370009D4400089D44000855440008FB685B6AA2
:104380007C4ADA63FB685B6A7B4A1A64FB685B6A97
:104390007A4ADA64FB68586A7968FB681B683433C8
:1043A0001A467B88FEF7C4FB0346002B01D001238D
:1043B000DBE0FB681B68DA68FB681B6842F400728C
:1043C000DA606EE0FB689B6A6A4ADA63FB689B6AA4
:1043D000694A1A64FB689B6A684ADA64FB68986AEF
:1043E0007968FB681B6838331A467B88FEF7A0FBA8
:1043F0000346002B01D00123B7E0FB681B68DA6895
:10440000FB681B6842F48062DA604AE0FB68DB6AA2
:10441000584ADA63FB68DB6A574A1A64FB68DB6A4E
:10442000564ADA64FB68D86A7968FB681B683C33D3
:104430001A467B88FEF77CFB0346002B01D0012344
:1044400093E0FB681B68DA68FB681B6842F4006253
:10445000DA6026E0FB681B6B464ADA63FB681B6B7D
:10446000454A1A64FB681B6B444ADA64FB68186BA4
:104470007968FB681B6840331A467B88FEF758FB57
:104480000346002B01D001236FE0FB681B68DA684C
:10449000FB681B6842F48052DA6002E00123FB757E
:1044A00000BFFB7D002B5FD1FB681B680122B96850
:1044B000184600F0B7FFFB681B68314A934204D0EE
:1044C000FB681B682F4A934201D1012300E00023BF
:1044D000002B07D0FB681B685A6CFB681B6842F412
:1044E00000425A64FB681B68254A934222D0FB684D
:1044F0001B68B3F1804F1DD0FB681B68224A9342B2
:1045000018D0FB681B68214A934213D0FB681B68D4
:104510001F4A93420ED0FB681B681A4A934209D087
:10452000FB681B681B4A934204D0FB681B681A4A4D
:10453000934211D1FB681B689B6803F007033B6142
:104540003B69062B10D0FB681B681A68FB681B6868
:1045500042F001021A6007E0FB681B681A68FB68FA
:104560001B6842F001021A60FB7D18461837BD46F1
:1045700080BD00BF294D0008D14D0008974C0008B0
:104580000000014000040140000400400008004019
:10459000000C0040004001400018004080B584B08D
:1045A00000AF786039600023FB733B680C2B55D853
:1045B00001A252F823F000BFED4500085D46000857
:1045C0005D4600085D460008094600085D46000893
:1045D0005D4600085D460008254600085D46000867
:1045E0005D4600085D460008414600087B681B6880
:1045F000DA687B681B6822F40072DA607B685B6AA9
:104600001846FEF7EDFA2CE07B681B68DA687B68D9
:104610001B6822F48062DA607B689B6A1846FEF7AA
:10462000DFFA1EE07B681B68DA687B681B6822F48F
:104630000062DA607B68DB6A1846FEF7D1FA10E0A8
:104640007B681B68DA687B681B6822F48052DA603A
:104650007B681B6B1846FEF7C3FA02E00123FB736D
:1046600000BFFB7B002B61D17B681B68002239688F
:10467000184600F0D7FE7B681B682F4A934204D08F
:104680007B681B682D4A934201D1012300E000237F
:10469000002B17D07B681B681A6A41F21113134074
:1046A000002B0FD17B681B681A6A40F24443134009
:1046B000002B07D17B681B685A6C7B681B6822F44F
:1046C00000425A647B681B681A6A41F21113134056
:1046D000002B0FD17B681B681A6A40F244431340D9
:1046E000002B07D17B681B681A687B681B6822F067
:1046F00001021A603B68002B04D17B68012283F819
:104700003E2013E03B68042B04D17B68012283F830
:104710003F200BE03B68082B04D17B68012283F823
:10472000402003E07B68012283F84120FB7B184690
:104730001037BD4680BD00BF0000014000040140AD
:1047400080B584B000AF78607B681B68DB68FB6075
:104750007B681B681B69BB60BB6803F00203002B0E
:1047600020D0FB6803F00203002B1BD07B681B6882
:104770006FF002021A617B6801221A777B681B685E
:104780009B6903F00303002B03D0786800F05BFA09
:1047900005E0786800F04DFA7868FCF7F3FE7B6876
:1047A00000221A77BB6803F00403002B20D0FB68BB
:1047B00003F00403002B1BD07B681B686FF004021E
:1047C0001A617B6802221A777B681B689B6903F475
:1047D0004073002B03D0786800F035FA05E0786864
:1047E00000F027FA7868FCF7CDFE7B6800221A7784
:1047F000BB6803F00803002B20D0FB6803F008031C
:10480000002B1BD07B681B686FF008021A617B6865
:1048100004221A777B681B68DB6903F00303002B13
:1048200003D0786800F00FFA05E0786800F001FA2C
:104830007868FCF7A7FE7B6800221A77BB6803F054
:104840001003002B20D0FB6803F01003002B1BD0BB
:104850007B681B686FF010021A617B6808221A7768
:104860007B681B68DB6903F44073002B03D0786816
:1048700000F0E9F905E0786800F0DBF97868FCF70A
:1048800081FE7B6800221A77BB6803F00103002BCE
:104890000CD0FB6803F00103002B07D07B681B687A
:1048A0006FF001021A617868FCF786FEBB6803F0BE
:1048B0008003002B0CD0FB6803F08003002B07D093
:1048C0007B681B686FF080021A617868FFF77AFBDB
:1048D000BB6803F04003002B0CD0FB6803F04003DF
:1048E000002B07D07B681B686FF040021A61786864
:1048F00000F0BDF9BB6803F02003002B0CD0FB686F
:1049000003F02003002B07D07B681B686FF02002A8
:104910001A617868FFF74CFB00BF1037BD4680BDB9
:1049200080B586B000AFF860B9607A600023FB758F
:10493000FB6893F83C30012B01D10223AEE0FB6809
:10494000012283F83C207B680C2B00F29F8001A29F
:1049500052F823F0894900088D4A00088D4A000862
:104960008D4A0008C94900088D4A00088D4A000890
:104970008D4A00080B4A00088D4A00088D4A00083D
:104980008D4A00084B4A0008FB681B68B968184646
:1049900000F0FEFAFB681B689A69FB681B6842F02E
:1049A00008029A61FB681B689A69FB681B6822F021
:1049B00004029A61FB681B689969BB681A69FB6805
:1049C0001B680A439A6164E0FB681B68B968184673
:1049D00000F04EFBFB681B689A69FB681B6842F499
:1049E00000629A61FB681B689A69FB681B6822F485
:1049F00080629A61FB681B689969BB681B691A022F
:104A0000FB681B680A439A6143E0FB681B68B9684E
:104A1000184600F0A3FBFB681B68DA69FB681B689B
:104A200042F00802DA61FB681B68DA69FB681B6800
:104A300022F00402DA61FB681B68D969BB681A6955
:104A4000FB681B680A43DA6123E0FB681B68B968EE
:104A5000184600F0F7FBFB681B68DA69FB681B6807
:104A600042F40062DA61FB681B68DA69FB681B6864
:104A700022F48062DA61FB681B68D969BB681B6934
:104A80001A02FB681B680A43DA6102E00123FB7526
:104A900000BFFB68002283F83C20FB7D18461837D6
:104AA000BD4680BD80B584B000AF7860396000231A
:104AB000FB737B6893F83C30012B01D10223B4E0F7
:104AC0007B68012283F83C207B68022283F83D202A
:104AD0007B681B689B68BB60BB6823F07703BB6087
:104AE000BB6823F47F43BB607B681B68BA689A602D
:104AF0003B681B68B3F5005F3ED0B3F5005F00F282
:104B00008780B3F5805F00F08680B3F5805F7FD843
:104B1000702B1AD0702B7BD8602B50D0602B77D89D
:104B2000502B3CD0502B73D8402B58D0402B6FD8F3
:104B3000302B64D0302B6BD8202B60D0202B67D843
:104B4000002B5CD0102B5AD062E07B6818683B6861
:104B500099683B685A683B68DB6800F043FC7B68F7
:104B60001B689B68BB60BB6843F07703BB607B68D6
:104B70001B68BA689A604FE07B6818683B68996860
:104B80003B685A683B68DB6800F02CFC7B681B685C
:104B90009A687B681B6842F480429A603CE07B68BC
:104BA00018683B6859683B68DB681A4600F0A0FB50
:104BB0007B681B685021184600F0F9FB2CE07B68ED
:104BC00018683B6859683B68DB681A4600F0BFFB11
:104BD0007B681B686021184600F0E9FB1CE07B68DD
:104BE00018683B6859683B68DB681A4600F080FB30
:104BF0007B681B684021184600F0D9FB0CE07B68FD
:104C00001A683B681B681946104600F0D0FB03E0A9
:104C10000123FB7300E000BF7B68012283F83D2085
:104C20007B68002283F83C20FB7B18461037BD468A
:104C300080BD80B483B000AF786000BF0C37BD4644
:104C40005DF8047B704780B483B000AF786000BF2C
:104C50000C37BD465DF8047B704780B483B000AF6D
:104C6000786000BF0C37BD465DF8047B704780B4A8
:104C700083B000AF786000BF0C37BD465DF8047BA1
:104C8000704780B483B000AF786000BF0C37BD467A
:104C90005DF8047B704780B584B000AF78607B68B6
:104CA0009B6BFB60FB685B6A7A689A4207D1FB6882
:104CB00001221A77FB68012283F83E202AE0FB6874
:104CC0009B6A7A689A4207D1FB6802221A77FB68CE
:104CD000012283F83F201DE0FB68DB6A7A689A4274
:104CE00007D1FB6804221A77FB68012283F8402071
:104CF00010E0FB681B6B7A689A4207D1FB680822B8
:104D00001A77FB68012283F8412003E0FB68012247
:104D100083F83D20F868FFF7B4FFFB6800221A779C
:104D200000BF1037BD4680BD80B584B000AF78604D
:104D30007B689B6BFB60FB685B6A7A689A420BD16D
:104D4000FB6801221A777B68DB69002B36D1FB6890
:104D5000012283F83E2031E0FB689B6A7A689A4220
:104D60000BD1FB6802221A777B68DB69002B25D107
:104D7000FB68012283F83F2020E0FB68DB6A7A6849
:104D80009A420BD1FB6804221A777B68DB69002BFF
:104D900014D1FB68012283F840200FE0FB681B6BF5
:104DA0007A689A420AD1FB6808221A777B68DB6925
:104DB000002B03D1FB68012283F84120F868FCF73F
:104DC000E1FBFB6800221A7700BF1037BD4680BDAB
:104DD00080B584B000AF78607B689B6BFB60FB683C
:104DE0005B6A7A689A4203D1FB6801221A7719E05C
:104DF000FB689B6A7A689A4203D1FB6802221A77A1
:104E000010E0FB68DB6A7A689A4203D1FB680422EF
:104E10001A7707E0FB681B6B7A689A4202D1FB683D
:104E200008221A77F868FFF718FFFB6800221A7744
:104E300000BF1037BD4680BD80B485B000AF78603C
:104E400039607B681B68FB607B68464A934213D0DD
:104E50007B68B3F1804F0FD07B68434A93420BD0FD
:104E60007B68424A934207D07B68414A934203D011
:104E70007B68404A934208D1FB6823F07003FB60D3
:104E80003B685B68FA681343FB607B68354A934272
:104E90002BD07B68B3F1804F27D07B68324A934296
:104EA00023D07B68314A93421FD07B68304A9342BB
:104EB0001BD07B682F4A934217D07B682E4A9342BF
:104EC00013D07B682D4A93420FD07B682C4A9342C3
:104ED0000BD07B682B4A934207D07B682A4A9342C7
:104EE00003D07B68294A934208D1FB6823F44073BE
:104EF000FB603B68DB68FA681343FB60FB6823F0E8
:104F000080023B685B691343FB607B68FA681A6048
:104F10003B689A687B68DA623B681A687B689A62C9
:104F20007B68104A934203D07B68124A934203D1B4
:104F30003B681A697B681A637B6801225A617B6847
:104F40001B6903F00103012B05D17B681B6923F06A
:104F500001027B681A6100BF1437BD465DF8047B0F
:104F6000704700BF000001400004004000080040FE
:104F7000000C00400004014000400140004401409A
:104F80000048014000180040001C00400020004084
:104F900080B487B000AF786039607B681B6A7B6142
:104FA0007B681B6A23F001027B681A627B685B687E
:104FB0003B617B689B69FB60FB6823F07003FB60CF
:104FC000FB6823F00303FB603B681B68FA6813432C
:104FD000FB607B6923F002037B613B689B687A6915
:104FE00013437B617B68204A934203D07B681F4A4E
:104FF00093420CD17B6923F008037B613B68DB683B
:105000007A6913437B617B6923F004037B617B68CE
:10501000154A934203D07B68144A934211D13B69ED
:1050200023F480733B613B6923F400733B613B686D
:105030005B693A6913433B613B689B693A69134377
:105040003B617B683A695A607B68FA689A613B68A1
:105050005A687B685A637B687A691A6200BF1C379A
:10506000BD465DF8047B704700000140000401402C
:1050700080B487B000AF786039607B681B6A7B6161
:105080007B681B6A23F010027B681A627B685B688E
:105090003B617B689B69FB60FB6823F4E043FB603A
:1050A000FB6823F44073FB603B681B681B02FA68D3
:1050B0001343FB607B6923F020037B613B689B68A3
:1050C0001B017A6913437B617B68224A934203D0B8
:1050D0007B68214A93420DD17B6923F080037B6179
:1050E0003B68DB681B017A6913437B617B6923F0B2
:1050F00040037B617B68174A934203D07B68164A62
:10510000934213D13B6923F480633B613B6923F4F1
:1051100000633B613B685B699B003A6913433B61F9
:105120003B689B699B003A6913433B617B683A6922
:105130005A607B68FA689A613B685A687B689A6330
:105140007B687A691A6200BF1C37BD465DF8047B34
:10515000704700BF000001400004014080B487B0E8
:1051600000AF786039607B681B6A7B617B681B6A73
:1051700023F480727B681A627B685B683B617B68A2
:10518000DB69FB60FB6823F07003FB60FB6823F0C6
:105190000303FB603B681B68FA681343FB607B6991
:1051A00023F400737B613B689B681B027A6913439D
:1051B0007B617B68214A934203D07B68204A9342FB
:1051C0000DD17B6923F400637B613B68DB681B02C4
:1051D0007A6913437B617B6923F480637B617B681D
:1051E000164A934203D07B68154A934213D13B6918
:1051F00023F480533B613B6923F400533B613B68DC
:105200005B691B013A6913433B613B689B691B0166
:105210003A6913433B617B683A695A607B68FA6874
:10522000DA613B685A687B68DA637B687A691A627C
:1052300000BF1C37BD465DF8047B7047000001408D
:105240000004014080B487B000AF786039607B68AB
:105250001B6A3B617B681B6A23F480527B681A627D
:105260007B685B687B617B68DB69FB60FB6823F4C0
:10527000E043FB60FB6823F44073FB603B681B6802
:105280001B02FA681343FB603B6923F400533B6144
:105290003B689B681B033A6913433B617B68124A76
:1052A000934203D07B68114A934209D17B6923F46E
:1052B00080437B613B685B699B017A6913437B6137
:1052C0007B687A695A607B68FA68DA613B685A6879
:1052D0007B681A647B683A691A6200BF1C37BD4656
:1052E0005DF8047B704700BF0000014000040140EE
:1052F00080B487B000AFF860B9607A60FB681B6A61
:105300007B61FB681B6A23F00102FB681A62FB6881
:105310009B693B613B6923F0F0033B617B681B01A8
:105320003A6913433B617B6923F00A037B617A6925
:10533000BB6813437B61FB683A699A61FB687A69D1
:105340001A6200BF1C37BD465DF8047B704780B40D
:1053500087B000AFF860B9607A60FB681B6A7B6158
:10536000FB681B6A23F01002FB681A62FB689B69EA
:105370003B613B6923F470433B617B681B033A69E3
:1053800013433B617B6923F0A0037B61BB681B0176
:105390007A6913437B61FB683A699A61FB687A69B1
:1053A0001A6200BF1C37BD465DF8047B704780B4AD
:1053B00085B000AF786039607B689B68FB60FB68F4
:1053C00023F07003FB603A68FB68134343F0070364
:1053D000FB607B68FA689A6000BF1437BD465DF8D1
:1053E000047B704780B487B000AFF860B9607A6022
:1053F0003B60FB689B687B617B6923F47F437B6137
:105400003B681A027B681A43BB6813437A691343EB
:105410007B61FB687A699A6000BF1C37BD465DF806
:10542000047B704780B487B000AFF860B9607A60E1
:10543000BB6803F01F03012202FA03F37B61FB68E0
:105440001A6A7B69DB431A40FB681A62FB681A6AB6
:10545000BB6803F01F03796801FA03F31A43FB6882
:105460001A6200BF1C37BD465DF8047B704780B5EB
:1054700082B000AF78607B68002B01D1012342E04D
:105480007B6893F84130DBB2002B06D17B680022A9
:1054900083F840207868FCF733FA7B68242283F88D
:1054A00041207B681B68DA687B681B6822F4005225
:1054B000DA60786800F072F97B681B681A697B68AB
:1054C0001B6822F490421A617B681B685A697B68EA
:1054D0001B6822F02A025A617B681B68DA687B68C5
:1054E0001B6842F40052DA607B6800225A647B68D1
:1054F000202283F841207B68202283F842207B68A9
:1055000000225A63002318460837BD4680BD80B587
:105510008AB002AFF860B9603B601346FB8000239D
:105520007B61FB6893F84130DBB2202B75D1BB68FF
:10553000002B02D0FB88002B01D101236EE0FB6819
:1055400000225A64FB68212283F8412000F000FC0D
:105550007861FB68FA889A84FB68FA88DA84FB68C9
:105560009B68B3F5805F08D1FB681B69002B04D1F1
:105570000023FB61BB68BB6103E0BB68FB610023E8
:10558000BB612EE03B6800937B6900228021F868B4
:1055900000F048F80346002B05D0FB68202283F872
:1055A000412003233AE0FB69002B0BD1BB691B8828
:1055B0001A46FB681B68C2F308025A60BB690233D3
:1055C000BB6107E0FB691A78FB681B685A60FB69DE
:1055D0000133FB61FB68DB8C9BB2013B9AB2FB6839
:1055E000DA84FB68DB8C9BB2002BCBD13B68009349
:1055F0007B6900224021F86800F014F80346002B74
:1056000005D0FB68202283F84120032306E0FB68D5
:10561000202283F84120002300E00223184620378F
:10562000BD4680BD80B586B000AFF860B9603B6014
:105630001346FB713BE03B6AB3F1FF3F37D000F00C
:1056400087FB02463B68D31A3A6A9A4202D33B6A06
:10565000002B01D103233AE0FB681B68DB6803F0F1
:105660000403002B23D0BB68802B20D0BB68402BC9
:105670001DD0FB681B681B6803F00803082B16D1BC
:1056800000237B61FB681B681B687B61FB681B68F0
:105690005B687B617B69F86800F01DF8FB68082295
:1056A0005A64FB68002283F8402001230FE0FB6866
:1056B0001B681A68BB681340BA689A420CBF012382
:1056C0000023DBB21A46FB799A42B4D00023184675
:1056D0001837BD4680BD80B495B000AF78607B6858
:1056E0001B680C337B637B6B53E8003F3B633B6B76
:1056F00023F49073FB647B681B680C33FA6C3A6488
:10570000FB63F96B3A6C41E80023BB63BB6B002B76
:10571000E5D17B681B6814333B623B6A53E8003F6A
:10572000FB61FB6923F00103BB647B681B681433D6
:10573000BA6CFA62BB62B96AFA6A41E800237B621A
:105740007B6A002BE5D17B681B6B012B19D17B6831
:105750001B680C33FB60FB6853E8003FBB60BB6811
:1057600023F010037B647B681B680C337A6CBA618E
:105770007B617969BA6941E800233B613B69002B91
:10578000E5D17B68202283F842207B6800221A63DF
:1057900000BF5437BD465DF8047B70472DE9B04F1C
:1057A000C0B000AFC7F8F400D7F8F4301B681B692D
:1057B00023F44050D7F8F430D968D7F8F4301A6899
:1057C00040EA01031361D7F8F4309A68D7F8F4304F
:1057D0001B691A43D7F8F4305B691A43D7F8F430E1
:1057E000DB691343C7F8F830D7F8F4301B68DB687F
:1057F00023F4164121F00C01D7F8F4301A68D7F8D9
:10580000F8300B43D360D7F8F4301B685B6923F49E
:105810004070D7F8F4309969D7F8F4301A6840EA44
:1058200001035361D7F8F4301A688F4B9A4205D0C0
:10583000D7F8F4301A688D4B9A4204D1FEF770FA0B
:10584000C7F8FC0003E0FEF757FAC7F8FC00D7F8EA
:10585000F430DB69B3F5004F40F00C81D7F8FC3031
:105860000022C7F8E830C7F8EC20D7E93A452246CD
:105870002B469118B9655B41FB65D7E91623214694
:1058800012EB0108294643EB01094FF000024FF0EB
:1058900000034FEAC90343EA58734FEAC80290462F
:1058A0009946234618EB0303C7F8E0302B4649EB33
:1058B0000303C7F8E430D7F8F4305B680022C7F878
:1058C000D830C7F8DC20D7E936120B46DB183B6529
:1058D000134642EB03037B65D7E91423D7E938016C
:1058E000FBF764F802460B46614BA3FB02235B09FE
:1058F0001C01D7F8FC300022C7F8D030C7F8D420FC
:10590000D7E9348942464B469118B9645B41FB6440
:10591000D7E91223414612EB010A494643EB010B3A
:105920004FF000024FF000034FEACB0343EA5A73F3
:105930004FEACA0292469B4643461AEB0303C7F856
:10594000C8304B464BEB0303C7F8CC30D7F8F430E4
:105950005B680022C7F8C030C7F8C420D7E930120E
:105960000B46DB183B64134642EB03037B64D7E929
:105970001023D7E93201FBF719F802460B4611460E
:105980003B4BA3FB01235B09642202FB03F3CB1A0D
:10599000DB0003F13202364BA3FB02235B095B0001
:1059A00003F4F8731C44D7F8FC300022C7F8B83071
:1059B000C7F8BC20D7E92E8942464B469118B963F7
:1059C0005B41FB63D7E90E234146511839634946D1
:1059D0004B417B634FF000024FF00003D7E90CAB63
:1059E0005946CB00514643EA51735146CA0010460E
:1059F0001946034642469B18C7F8B0304B460A4644
:105A000042EB0303C7F8B430D7F8F4305B680022E8
:105A1000C7F8A830C7F8AC20D7E92A120B46DB1824
:105A2000BB62134642EB0303FB62D7E90A23D7E9C3
:105A30002C01FAF7BBFF02460B460D4BA3FB0213EA
:105A40005B09642101FB03F3D31ADB003233084AFC
:105A5000A2FB03235B0903F00702D7F8F4301B68AD
:105A600022449A6006E100BF00100140001401408A
:105A70001F85EB51D7F8FC300022C7F8A030C7F8DB
:105A8000A420D7E9288942464B46911839625B41E8
:105A90007B62D7E9082341465418494643EB010588
:105AA0004FF000024FF00003EB0043EA5473E200B2
:105AB00014461D464346E318C7F898304B4645EB5D
:105AC0000303C7F89C30D7F8F4305B680022C7F8AE
:105AD0009030C7F894204FF000024FF00003D7E950
