:020000040800F2
:1000000000000220D10A0008F1090008F7090008E1
:10001000FD090008030A0008090A000800000000A2
:100020000000000000000000000000000F0A0008AF
:100030001D0A0008000000002B0A0008390A000809
:10004000210B0008210B0008210B0008210B0008E0
:10005000210B0008210B0008210B0008210B0008D0
:10006000210B0008210B0008210B0008210B0008C0
:10007000210B0008210B0008210B0008450A00088D
:10008000210B0008210B0008210B0008210B0008A0
:10009000210B0008210B0008210B0008210B000890
:1000A000210B0008210B0008210B0008210B000880
:1000B000210B0008590A0008210B0008210B000839
:1000C000210B0008210B0008210B0008210B000860
:1000D000210B0008210B0008210B0008210B000850
:1000E000210B0008210B0008210B0008210B000840
:1000F000210B0008210B0008210B0008210B000830
:10010000210B0008210B0008210B0008210B00081F
:10011000210B0008210B0008210B0008210B00080F
:10012000210B0008210B0008210B0008210B0008FF
:10013000210B00080000000000000000210B000857
:10014000210B0008210B0008210B00086D0A000894
:10015000210B0008210B0008210B0008210B0008CF
:10016000210B0008210B0008210B0008210B0008BF
:10017000210B0008210B0008000000000000000017
:08018000210B0008210B00080F
:1001880010B5054C237833B9044B13B10448AFF3C9
:1001980000800123237010BDFC0000200000000037
:1001A800DC85000808B5034B1BB103490348AFF3CE
:1001B800008008BD0000000000010020DC85000868
:1001C80053B94AB9002908BF00281CBF4FF0FF31B6
:1001D8004FF0FF3000F070B9ADF1080C6DE904CEB6
:1001E80000F006F8DDF804E0DDE9022304B070470A
:1001F8002DE9F047089E0D4604460F46002B4AD1CC
:100208008A42944665D9B2FA82F343B102FA03FCF2
:10021800C3F120029F4020FA02F217439C404FEAA4
:100228001C4E1FFA8CF5B7FBFEF1220C0EFB117762
:1002380042EA074201FB05F090420AD91CEB020290
:1002480001F1FF3780F01C81904240F21981023998
:100258006244121AA4B2B2FBFEF00EFB102244EA6A
:10026800024400FB05F5A5420AD91CEB040400F181
:10027800FF3280F00781A54240F2048164440238CD
:1002880040EA0140641B00211EB1DC400023C6E99E
:100298000043BDE8F0878B4208D9002E00F0ED80BE
:1002A8000021C6E900050846BDE8F087B3FA83F1E6
:1002B800002949D1AB4202D3824200F2F880841A65
:1002C80065EB030201201746002EE2D0C6E900477D
:1002D800DFE702B9FFDEB2FA82F3002B40F090802C
:1002E8008A1A4FEA1C471FFA8CFE0121B2FBF7F568
:1002F80007FB1520220C42EA00420EFB05F0904253
:1003080008D91CEB020205F1FF3802D2904200F234
:10031800CB804546121AA4B2B2FBF7F007FB1022B5
:1003280044EA02440EFB00FEA64508D91CEB04046F
:1003380000F1FF3202D2A64500F2BB801046A4EBC2
:100348000E0440EA05409FE7C1F120078B4022FADE
:1003580007FC4CEA030C05FA01F420FA07F3FD4008
:100368004FEA1C492343B5FBF9F81FFA8CFE09FB39
:1003780018551C0C44EA054408FB0EF5A54202FA80
:1003880001F200FA01F00BD91CEB040408F1FF3A62
:1003980080F08880A54240F28580A8F10208644474
:1003A800641B9DB2B4FBF9F309FB134445EA04440A
:1003B80003FB0EFEA64508D91CEB040403F1FF3528
:1003C8006CD2A6456AD9023B644443EA0843A3FBBE
:1003D8000295A4EB0E04AC42C846AE4656D353D0A1
:1003E80056B1B0EB080264EB0E0404FA07F7CA40F2
:1003F800CC401743C6E9007418460021BDE8F087D1
:10040800C3F1200102FA03FC20FA01F225FA01F1F6
:100418009D402A434FEA1C471FFA8CFEB1FBF7F0B8
:1004280007FB1015110C41EA054100FB0EF58D4242
:1004380004FA03F408D91CEB010100F1FF382FD2AC
:100448008D422DD902386144491B92B2B1FBF7F5B0
:1004580007FB151142EA014205FB0EF1914208D94A
:100468001CEB020205F1FF3816D2914214D9023D65
:100478006244521A45EA004138E73146304608E7F7
:100488003946E6E61046FBE64845A9D2B9EB02082C
:1004980065EB0C0E013BA3E74546EAE72B4694E7DC
:1004A8004046D1E7D0467BE7023D624432E7084642
:1004B8000AE76444023842E7704700BF034613F86E
:1004C800012B002AFBD1181A0138704780B58AB071
:1004D80000AF274A07F11C0307CA83E8070007F1A2
:1004E8001C031846FFF7EAFF03469AB207F11C03FC
:1004F8001146184607F0E6FB07F11C031846FFF7FC
:10050800DDFF03469AB207F11C031146184607F0AF
:10051800D9FB05F001FF384603230022154900F0F6
:10052800BDFA642005F06AFF00F02AF800F028F907
:1005380000F006F900F08EF807F0C6FA02210E481E
:1005480003F087F807F11C031846FFF7B7FF0346C7
:100558009AB207F11C031146184607F0B3FB4FF493
:100568007A7005F04BFF054B00221A70E6E700BFD2
:10057800F48500081801002000080240C00100208E
:1005880080B594B000AF07F120033022002118464F
:1005980007F0F4FF07F10C0300221A605A609A6012
:1005A800DA601A610023BB60284B1B6C274A43F0B2
:1005B80080531364254B1B6C03F08053BB60BB68EE
:1005C80000237B60224B1B68214A43F4804313605D
:1005D8001F4B1B6803F480437B607B6801233B62ED
:1005E8004FF480337B620223BB634FF48003FB63C9
:1005F80006233B64A8237B640223BB640723FB64B4
:1006080007F12003184604F08FFA0346002B01D0A7
:1006180000F020F90F23FB6002233B6100237B617C
:100628004FF4A053BB614FF48053FB6107F10C03F7
:100638000521184604F0F0FC0346002B01D000F019
:1006480009F900BF5037BD4680BD00BF00380240E1
:100658000070004080B58EB000AF07F1280300227B
:100668001A605A609A60DA6007F1200300221A6063
:100678005A603B1D00221A605A609A60DA601A615B
:100688005A619A612C4B2D4A1A602B4B00225A60F2
:10069800294B00229A60284B3322DA60264B00222D
:1006A8001A61254B00229A61234804F0FDFE034697
:1006B800002B01D000F0CEF84FF48053BB6207F155
:1006C800280319461C4805F01BFA0346002B01D0E5
:1006D80000F0C0F8184804F036FF0346002B01D09C
:1006E80000F0B8F800233B6200237B6207F1200387
:1006F8001946114804F048FE0346002B01D000F0CB
:10070800A9F860237B600023BB600023FB60002303
:100718007B613B1D00221946074805F02FF9034667
:10072800002B01D000F096F8034800F023F900BF31
:100738003837BD4680BD00BF1801002000040040C6
:1007480080B582B000AF00237B600C4B1B6B0B4A5B
:1007580043F400131363094B1B6B03F400137B6012
:100768007B68002200210F2002F07BFA0F2002F0A4
:1007780094FA00BF0837BD4680BD00BF003802406C
:1007880080B588B000AF07F10C0300221A605A60E8
:100798009A60DA601A610023BB601F4B1B6B1E4A0C
:1007A80043F0800313631C4B1B6B03F08003BB6097
:1007B800BB6800237B60184B1B6B174A43F004038C
:1007C8001363154B1B6B03F004037B607B680023EA
:1007D8003B60114B1B6B104A43F0010313630E4B34
:1007E8001B6B03F001033B603B68002203210B48AD
:1007F80002F016FF0323FB6001233B6100237B61AA
:100808000023BB6107F10C031946044802F06CFD94
:1008180000BF2037BD4680BD0038024000080240B6
:1008280080B582B000AF78607B681B68064A934247
:1008380006D10021054804F0DFFE054B01221A709D
:1008480000BF0837BD4680BD0004004018010020E5
:10085800C001002080B400AF72B600BFFEE7000000
:1008680080B483B000AF00237B60104B5B6C0F4AF1
:1008780043F4804353640D4B5B6C03F480437B600B
:100888007B6800233B60094B1B6C084A43F080538C
:100898001364064B1B6C03F080533B603B6800BF3E
:1008A8000C37BD465DF8047B704700BF0038024036
:1008B80080B584B000AF78607B681B68294A934292
:1008C8004CD10023FB60284B1B6C274A43F00203E2
:1008D8001364254B1B6C03F00203FB60FB68234B7E
:1008E800234A1A60214B4FF020625A601F4B402266
:1008F8009A601E4B4FF40072DA601C4B4FF4806212
:100908001A611A4B4FF480525A61184B4FF48042C7
:100918009A61164B0022DA61144B00221A62134BBB
:1009280000225A62114802F0D3F90346002B01D085
:10093800FFF790FF7B680D4A5A620C4A7B68936305
:100948007B680A4A9A63094A7B68936300220021FC
:100958001D2002F086F91D2002F09FF900BF103714
:10096800BD4680BD00040040003802406001002000
:100978007060024080B588B000AF786007F10C0362
:1009880000221A605A609A60DA601A617B681B68F4
:10099800124A93421DD10023BB60114B1B6B104AB6
:1009A80043F0010313630E4B1B6B03F00103BB60A1
:1009B800BB684023FB6002233B6100237B6100236B
:1009C800BB610223FB6107F10C031946054802F0DD
:1009D8008BFC00BF2037BD4680BD00BF000400402F
:1009E800003802400000024080B400AFFEE780B447
:1009F80000AFFEE780B400AFFEE780B400AFFEE7CB
:100A080080B400AFFEE780B400AF00BFBD465DF81C
:100A1800047B704780B400AF00BFBD465DF8047B1F
:100A2800704780B400AF00BFBD465DF8047B7047D7
:100A380080B500AF05F0C2FC00BF80BD80B500AF37
:100A4800024802F015FA00BF80BD00BF6001002017
:100A580080B500AF024804F0A1FE00BF80BD00BF12
:100A68001801002080B500AF024802F0B4FF00BFB3
:100A780080BD00BFA416002080B400AF064BD3F899
:100A88008830054A43F47003C2F8883000BFBD4679
:100A98005DF8047B704700BF00ED00E080B485B0CE
:100AA80000AFF860B9607A607B80FB68BA681A604A
:100AB800FB687A685A60FB687A881A8100BF143725
:100AC800BD465DF8047B7047DFF834D0FFF7D4FFEC
:100AD8000C480D490D4A002302E0D458C450043391
:100AE800C4188C42F9D30A4A0A4C002301E0136067
:100AF8000432A242FBD307F049FDFFF7E7FC704739
:100B08000000022000000020FC0000207886000879
:100B1800FC000020A81D0020FEE7000080B584B07E
:100B280000AF78600B46FB704FF4077007F0E2FCEB
:100B3800F860FB68002B09D17B68D3F8D4227B6866
:100B4800B032002143F822100223D4E04FF4077298
:100B58000021F86807F012FD7B68D3F8D4227B687F
:100B6800B032F96843F822107B68D3F8D4227B6846
:100B7800B03253F822207B68C3F8BC227B681B7C08
:100B8800002B38D15E4B19784FF400730222786835
:100B980007F08DFB5A4B1B7803F00F027968134658
:100BA8009B0013449B000B44243301221A80554BAD
:100BB80019784FF400730222786807F078FB514BDC
:100BC8001B7803F00F02796813469B0013449B00BF
:100BD8000B4403F5B27301221A804B4B1B7803F0C8
:100BE8000F02796813469B0013449B000B4426337D
:100BF80010221A8035E0424B197840230222786887
:100C080007F055FB3E4B1B7803F00F02796813463B
:100C18009B0013449B000B44243301221A80394B58
:100C2800197840230222786807F041FB354B1B787E
:100C380003F00F02796813469B0013449B000B4492
:100C480003F5B27301221A802F4B1B7803F00F02B1
:100C5800796813469B0013449B000B4426331022EB
:100C68001A80294B197808230322786807F01FFB9C
:100C7800254B1B7803F00F02796813469B00134439
:100C88009B000B44243301221A80FB680022C3F81E
:100C980004227B68D3F8D4327A68B0339B001344BB
:100CA8005B681B689847FB680022C3F81422FB683E
:100CB8000022C3F81822FB68D3F80432002B01D1B4
:100CC800022318E07B681B7C002B0AD10D4B197896
:100CD800FB68D3F804224FF40073786807F0D6FB5A
:100CE80008E0084B1978FB68D3F804224023786899
:100CF80007F0CCFB002318461037BD4680BD00BF67
:100D08008B0000208C0000208D00002080B582B070
:100D180000AF78600B46FB703A4B1B781946786831
:100D280007F0EBFA374B1B7803F00F02796813468C
:100D38009B0013449B000B44243300221A80324B3F
:100D48001B781946786807F0D8FA2F4B1B7803F000
:100D58000F02796813469B0013449B000B4403F56C
:100D6800B27300221A80294B1B781946786807F05D
:100D7800C4FA264B1B7803F00F02796813469B00D0
:100D880013449B000B44243300221A801F4B1B780A
:100D980003F00F02796813469B0013449B000B4431
:100DA800263300221A807B68D3F8D4227B68B032BD
:100DB80053F82230002B1FD07B68D3F8D4327A68DE
:100DC800B0339B0013445B685B6898477B68D3F833
:100DD800D4227B68B03253F82230184607F098FBCB
:100DE8007B68D3F8D4227B68B032002143F8221004
:100DF8007B680022C3F8BC22002318460837BD468A
:100E080080BD00BF8B0000208C0000208D000020DA
:100E180080B586B000AF786039607B68D3F8D4229B
:100E28007B68B03253F822303B6100237B73002388
:100E38007B810023FB753B69002B01D10323BFE0B5
:100E48003B681B7803F06003002B50D0202B40F048
:100E5800AF803B68DB88002B3AD03B681B785BB2DD
:100E6800002B1BDA7B68D3F8D4327A68B0339B0046
:100E780013445B689B683A68507839693A68D28845
:100E880098473B68DB88072B28BF0723FB813B6912
:100E9800FA891946786801F089FD90E03B685A782C
:100EA8003B6983F800223B68DB883F2B03D83B680B
:100EB800DB88DAB200E040223B6983F80122396915
:100EC8003B6993F801321A46786801F09BFD76E099
:100ED8007B68D3F8D4327A68B0339B0013445B68DC
:100EE8009B683A68507800223968984767E03B6801
:100EF8005B780B2B51D801A252F823F0350F00086C
:100F0800B10F0008A30F0008A30F0008A30F0008E3
:100F1800A30F0008A30F0008A30F0008A30F0008E1
:100F2800A30F00085F0F0008890F00087B6893F87B
:100F38009C32DBB2032B07D107F10A0302221946C0
:100F4800786801F033FD32E03968786801F0BDFC5B
:100F58000323FB752BE07B6893F89C32DBB2032BF1
:100F680007D107F10D0301221946786801F01EFD2B
:100F78001DE03968786801F0A8FC0323FB7516E0CA
:100F88007B6893F89C32DBB2032B0FD03968786802
:100F980001F09BFC0323FB7508E03968786801F0D1
:100FA80094FC0323FB7502E000BF08E000BF06E0E5
:100FB8003968786801F089FC0323FB7500BFFB7D65
:100FC80018461837BD4680BD80B584B000AF78603C
:100FD8000B46FB707B68D3F8C832FB607B68D3F89C
:100FE800D4227B68B03253F82230002B01D103237E
:100FF80065E07B68D3F8D4227B68B03253F822309E
:10100800BB60FB7803F00F02796813469B0013441A
:101018009B000B4418331B68002B2FD0FB7803F080
:101028000F02796813469B0013449B000B44183346
:101038001A68FB7803F00F01F8680B46DB000B44D5
:101048009B0003441C331B68B2FBF3F101FB03F361
:10105800D31A002B12D1FB7803F00F0279681346DC
:101068009B0013449B000B44183300221A60F97844
:1010780000230022786807F0E8F91FE0BB68002227
:10108800C3F814227B68D3F8D4327A68B0339B0053
:1010980013445B681B69002B10D07B68D3F8D432EB
:1010A8007A68B0339B0013445B681B69BA68D2F84E
:1010B8000802BA6802F50471FA78984700231846BE
:1010C8001037BD4680BD80B584B000AF78600B4650
:1010D800FB707B68D3F8D4227B68B03253F8223097
:1010E800FB607B68D3F8D4227B68B03253F8223097
:1010F800002B01D103231AE0FB781946786807F022
:10110800E6F90246FB68C3F80C227B68D3F8D432B0
:101118007A68B0339B0013445B68DB68FA68D2F8DE
:101128000402FA6802F5037211469847002318462C
:101138001037BD4680BD80B584B000AF78607B684D
:10114800D3F8D4227B68B03253F82230FB60FB68B6
:10115800002B01D1032325E07B68D3F8D4327A68C9
:10116800B0339B0013445B68002B1AD0FB6893F8DC
:101178000032FF2B15D07B68D3F8D4327A68B033AD
:101188009B0013445B689B68FA6892F80002F96850
:10119800FA6892F8012292B29847FB68FF2283F816
:1011A8000022002318461037BD4680BD80B586B0A2
:1011B80000AF78608221184800F04FFD7861012166
:1011C800154800F04AFD38618121134800F045FDBB
:1011D800F8607B69002B02D07B6910229A713B6909
:1011E800002B06D03B69002242F040021A7100220F
:1011F8005A71FB68002B06D0FB68002242F04002BF
:101208001A7100225A717B6843221A80024B1846D1
:101218001837BD4680BD00BF4800002080B586B0A5
:1012280000AF78608221184800F017FD786101212D
:10123800154800F012FD38618121134800F00DFDBA
:10124800F8607B69002B02D07B6910229A713B6998
:10125800002B06D03B6900221A71002242F00202DC
:101268005A71FB68002B06D0FB6800221A71002215
:1012780042F002025A717B6843221A80024B1846D8
:101288001837BD4680BD00BF4800002080B586B035
:1012980000AF78608221184800F0DFFC78610121F6
:1012A800154800F0DAFC38618121134800F0D5FCBC
:1012B800F8607B69002B02D07B6910229A713B6928
:1012C800002B06D03B69002242F040021A7100222E
:1012D8005A71FB68002B06D0FB68002242F04002DE
:1012E8001A7100225A717B6843221A80024B1846F1
:1012F8001837BD4680BD00BF4800002080B483B0C9
:1013080000AF78607B680A221A80034B18460C37B6
:10131800BD465DF8047B70470400002080B483B0AC
:1013280000AF786039603B68002B01D1032309E0E6
:101338007B68D3F8D4327A68B0339B0013443A6898
:101348005A60002318460C37BD465DF8047B704789
:1013580080B487B000AFF860B9607A60FB68D3F8F2
:10136800D422FB68B03253F822307B617B69002BB2
:1013780001D1032308E07B69BA68C3F808227B69B6
:101388007A68C3F81022002318461C37BD465DF85A
:10139800047B704780B485B000AF786039607B68A3
:1013A800D3F8D4227B68B03253F82230FB60FB6854
:1013B800002B01D1032304E0FB683A68C3F8042238
:1013C800002318461437BD465DF8047B70470000BB
:1013D80080B584B000AF78607B68D3F8D4227B688E
:1013E800B03253F82230BB600123FB73BB68002B7B
:1013F80001D1032325E0BB68D3F81432002B1FD199
:10140800BB680122C3F81422104B1B7803F00F02AB
:10141800BB68D3F81012786813469B0013449B00EE
:10142800034418331960094B1978BB68D3F80822AC
:10143800BB68D3F81032786807F007F80023FB730D
:10144800FB7B18461037BD4680BD00BF8B000020CF
:1014580080B584B000AF78607B68D3F8D4227B680D
:10146800B03253F82230FB607B68D3F8D4227B6813
:10147800B03253F82230002B01D1032318E07B68E7
:101488001B7C002B0AD10C4B1978FB68D3F804227B
:101498004FF40073786806F0F9FF08E0064B1978F6
:1014A800FB68D3F804224023786806F0EFFF002396
:1014B80018461037BD4680BD8C00002080B586B028
:1014C80000AFF860B9601346FB71FB68002B01D1CF
:1014D80003231FE0FB680022C3F8B822FB68002240
:1014E800C3F8C422FB680022C3F8D022BB68002BD3
:1014F80003D0FB68BA68C3F8B422FB68012283F8FA
:101508009C22FB68FA791A70F86806F069FE0346AF
:10151800FB75FB7D18461837BD4680BD80B584B085
:1015280000AF786039600023FB813B68002B01D154
:10153800032325E07B683A68C3F8B8227B68D3F8B0
:10154800D4227B68AE3253F82230DB6A002B0FD0EE
:101558007B68D3F8D4227B68AE3253F82230DB6A3A
:1015680007F10E021046984702467B68C3F8D0225E
:101578007B68D3F8D8325A1C7B68C3F8D82200237A
:1015880018461037BD4680BD80B582B000AF786080
:10159800786806F071FE034618460837BD4680BDD8
:1015A80080B483B000AF7860002318460C37BD467E
:1015B8005DF8047B704780B584B000AF78600B4657
:1015C800FB700023FB737B68D3F8B832002B09D07B
:1015D8007B68D3F8B8321B68FA7811467868984760
:1015E8000346FB73FB7B18461037BD4680BD80B5AC
:1015F80084B000AF78600B46FB700023FB737B68F8
:10160800D3F8B8325B68FA78114678689847034689
:10161800002B01D00323FB73FB7B18461037BD4614
:1016280080BD80B584B000AF786039607B6803F214
:10163800AA233968184601F00EF97B680122C3F81D
:1016480094227B68B3F8B0321A467B68C3F89822B4
:101658007B6893F8AA3203F01F03022B1AD0022BDF
:1016680022D8002B02D0012B0AD01DE07B6803F2A0
:10167800AA231946786800F065FB0346FB7320E04F
:101688007B6803F2AA231946786800F0CDFB03466D
:10169800FB7316E07B6803F2AA231946786800F00A
:1016A8002FFC0346FB730CE07B6893F8AA3223F007
:1016B8007F03DBB21946786806F03EFE0346FB73EB
:1016C80000BFFB7B18461037BD4680BD80B586B08D
:1016D80000AFF8600B467A60FB720023FB75FB7A5B
:1016E800002B6ED1FB6803F5AA733B61FB68D3F846
:1016F8009432032B40F098803B699A683B69DB6819
:101708009A4213D93B699A683B69DB68D21A3B69EC
:101718009A603B69DA683B699B68934228BF134625
:101728001A467968F86801F08AF97DE0FB6893F851
:10173800AA3203F01F03022B14D0022B1DD8002B52
:1017480002D0012B03D018E00023BB7518E0FB681A
:10175800B3F8AE32DBB21946F86800F064FA034613
:10176800BB750DE0FB68B3F8AE32DBB21946F8681A
:1017780000F066FA0346BB7502E00023BB7500BFA4
:10178800BB7D002B19D1FB6893F89C32DBB2032B8D
:1017980013D1BA7DFB68AE3253F822301B69002B97
:1017A8000BD0BA7DFB68C3F8D422BA7DFB68AE3291
:1017B80053F822301B69F8689847F86801F050F927
:1017C80032E0FB7A03F07F03DBB21946F86800F0D9
:1017D80037FA0346BB75BB7DFF2B25D0BB7D002B9D
:1017E80022D1FB6893F89C32DBB2032B17D1BA7D68
:1017F800FB68AE3253F822309B69002B0FD0BA7DBC
:10180800FB68C3F8D422BA7DFB68AE3253F82230A5
:101818009B69FA7A1146F86898470346FB75FB7D81
:10182800002B01D0FB7D00E0002318461837BD4689
:1018380080BD80B586B000AFF8600B467A60FB7259
:10184800FB7A002B6FD1FB6814333B61FB68D3F83C
:101858009432022B5AD13B699A683B69DB689A42F9
:1018680014D93B699A683B69DB68D21A3B699A606C
:101878003B699B681A467968F86801F0B2F800235A
:1018880000220021F86806F001FE3FE03B69DA68B3
:101898003B699B689A421CD13B695A683B69DB6883
:1018A8009A4216D33B695A68FB68D3F898329A4231
:1018B8000FD200220021F86801F093F8FB6800229B
:1018C800C3F89822002300220021F86806F0DEFD04
:1018D8001CE0FB6893F89C32DBB2032B0FD1FB684A
:1018E800D3F8B832DB68002B09D0FB680022C3F8B4
:1018F800D422FB68D3F8B832DB68F86898478021AF
:10190800F86806F019FDF86801F0BDF8FB6893F86F
:10191800A032002B3AD0F868FFF742FEFB6800229D
:1019280083F8A02232E0FB7A63F07F03DBB219462A
:10193800F86800F085F90346FB75FB7DFF2B25D081
:10194800FB7D002B22D1FB6893F89C32DBB2032B82
:101958001CD1FA7DFB68AE3253F822305B69002B4C
:1019680014D0FA7DFB68C3F8D422FA7DFB68AE3246
:1019780053F822305B69FA7A1146F86898470346AB
:10198800BB75BB7D002B01D0BB7D00E00023184652
:101998001837BD4680BD80B584B000AF786000239D
:1019A800FB737B68012283F89C227B680022C3F8C2
:1019B80094227B6800225A607B680022C3F8A42224
:1019C8007B68002283F8A0227B68D3F8B832002B0A
:1019D80014D07B68D3F8B8325B68002B0ED07B68D4
:1019E800D3F8B8325B687A685268D2B21146786820
:1019F80098470346002B01D00323FB7340230022A2
:101A08000021786806F053FC7B680122A3F8642162
:101A18007B684022C3F86021402300228021786837
:101A280006F045FC7B6801229A847B6840221A6292
:101A3800FB7B18461037BD4680BD80B483B000AF2D
:101A480078600B46FB707B68FA781A740023184696
:101A58000C37BD465DF8047B704780B483B000AF97
:101A680078607B6893F89C32DBB2042B06D07B68E5
:101A780093F89C32DAB27B6883F89D227B68042253
:101A880083F89C22002318460C37BD465DF8047B7A
:101A9800704780B483B000AF78607B6893F89C325D
:101AA800DBB2042B06D17B6893F89D32DAB27B68EF
:101AB80083F89C22002318460C37BD465DF8047B4A
:101AC800704780B582B000AF78607B6893F89C322D
:101AD800DBB2032B10D17B68D3F8B832002B0BD0C4
:101AE8007B68D3F8B832DB69002B05D07B68D3F864
:101AF800B832DB6978689847002318460837BD462E
:101B080080BD80B582B000AF78600B46FB707B6803
:101B1800D3F8D4227B68AE3253F82230002B01D19F
:101B280003231CE07B6893F89C32DBB2032B15D1AE
:101B38007B68D3F8D4227B68AE3253F822301B6A14
:101B4800002B0BD07B68D3F8D4227B68AE3253F8D5
:101B580022301B6AFA78114678689847002318469D
:101B68000837BD4680BD80B582B000AF78600B46AF
:101B7800FB707B68D3F8D4227B68AE3253F82230EE
:101B8800002B01D103231CE07B6893F89C32DBB265
:101B9800032B15D17B68D3F8D4227B68AE3253F877
:101BA80022305B6A002B0BD07B68D3F8D4227B6889
:101BB800AE3253F822305B6AFA7811467868984753
:101BC800002318460837BD4680BD80B483B000AFF7
:101BD8007860002318460C37BD465DF8047B7047D3
:101BE80080B584B000AF78600023FB737B68012266
:101BF80083F89C227B68D3F8B832002B0ED07B6820
:101C0800D3F8B8325B687A685268D2B211467868FD
:101C180098470346002B01D00323FB73FB7B184630
:101C28001037BD4680BD80B483B000AF78600B46E6
:101C3800FB70002318460C37BD465DF8047B7047DF
:101C480080B483B000AF78600B46FB700023184661
:101C58000C37BD465DF8047B704780B586B000AF91
:101C680078600B46FB707B687B617B68FB600023B8
:101C78003B61FB685B889AB2FB681B789BB29A420F
:101C880020D9FB681B789BB27B8113E007F10A031C
:101C98001946786900F01BF878617B695B78052B39
:101CA80008D17B693B613B699B78FA789A4208D0F6
:101CB80000233B61FB685B889AB27B899A42E5D82E
:101CC80000E000BF3B6918461837BD4680BD80B4A8
:101CD80085B000AF786039607B68FB603B681A8824
:101CE800FB681B789BB213449AB23B681A80FB6866
:101CF8001B781A467B681344FB60FB681846143748
:101D0800BD465DF8047B704780B487B000AF78604B
:101D18007B687B617B691B787B827B6901337B6194
:101D28007B691B783B823B8A1B021AB2B7F91230D7
:101D380013431BB2FB81FB8918461C37BD465DF86F
:101D4800047B704780B584B000AF786039600023A9
:101D5800FB733B681B7803F06003402B05D0402BD6
:101D680057D8002B0FD0202B53D17B68D3F8D4221F
:101D78007B68AE3253F822309B6839687868984798
:101D88000346FB734AE03B685B78092B3BD801A20A
:101D980052F823F0F11D0008051E00080F1E000868
:101DA800FB1D00080F1E0008CF1D0008C51D0008F8
:101DB8000F1E0008E71D0008D91D0008396878685B
:101DC80000F03CFA24E03968786800F0A1FB1FE0D5
:101DD8003968786800F0E0FB0346FB7318E039685F
:101DE800786800F083FC13E03968786800F0B4FC88
:101DF8000EE03968786800F0E3FC09E03968786833
:101E080000F007FD04E03968786800F05EFD00BF67
:101E180004E03968786800F058FD00BFFB7B18467D
:101E28001037BD4680BD00BF80B584B000AF786074
:101E380039600023FB733B681B7803F06003402B79
:101E480005D0402B52D8002B01D0202B4ED17B68D7
:101E580093F89C32DBB2013B022B40D83B689B884D
:101E6800DBB2012B36D83B689B88DBB21946786811
:101E7800FFF7D9FE0346BB73BB7BFF2B1DD0BB7B93
:101E8800002B1AD1BA7B7B68AE3253F822309B689C
:101E9800002B0FD0BA7B7B68C3F8D422BA7B7B684F
:101EA800AE3253F822309B68396878689847034601
:101EB800FB7304E00323FB7301E00323FB733B681C
:101EC800DB88002B10D1FB7B002B0DD1786800F04C
:101ED800C7FD09E03968786800F0F7FC04E0396864
:101EE800786800F0F2FC00E000BF04E03968786828
:101EF80000F0EBFC00BFFB7B18461037BD4680BDE9
:101F080080B584B000AF786039600023FB733B680C
:101F18009B88BB733B681B7803F06003402B07D09A
:101F2800402B00F27F81002B2AD0202B40F07A81B1
:101F3800BB7B19467868FFF783FE03467B737B7B80
:101F4800FF2B00F074817B7B002B40F070817A7B43
:101F58007B68C3F8D4227A7B7B68AE3253F8223090
:101F68009B68002B00F063817A7B7B68AE3253F864
:101F780022309B683968786898470346FB7356E1B6
:101F88003B685B78032B08D0032B00F34581002BBB
:101F980000F09B80012B3CD03EE17B6893F89C329B
:101FA800DBB2022B02D0032B16D02CE0BB7B002B1C
:101FB8000DD0BB7B802B0AD0BB7B1946786806F016
:101FC800BBF98021786806F0B7F900BF20E03968CE
:101FD800786800F07AFC1BE03B685B88002B0ED128
:101FE800BB7B002B0BD0BB7B802B08D03B68DB88EE
:101FF800002B04D1BB7B1946786806F09DF97868F8
:1020080000F02EFD04E03968786800F05EFC00BF3F
:1020180007E17B6893F89C32DBB2022B02D0032BDA
:1020280016D04BE0BB7B002B0DD0BB7B802B0AD09E
:10203800BB7B1946786806F07FF98021786806F03E
:102048007BF900BF40E03968786800F03EFC3BE06F
:102058003B685B88002B36D1BB7B03F07F03002BEA
:1020680004D0BB7B1946786806F085F9786800F0DB
:10207800F7FCBB7B19467868FFF7E2FD03467B73E4
:102088007B7BFF2B1FD07B7B002B1CD17A7B7B6853
:10209800C3F8D4227A7B7B68AE3253F822309B682F
:1020A800002B10D07A7B7B68AE3253F822309B68C5
:1020B8003968786898470346FB7304E0396878689C
:1020C80000F003FC00E000BFABE07B6893F89C32B3
:1020D800DBB2022B02D0032B32D097E0BB7B002B64
:1020E80007D0BB7B802B04D03968786800F0EDFB03
:1020F80091E097F90E30002B0BDABB7B03F07F02DF
:1021080013469B0013449B0010337A68134404332E
:102118000BE0BB7B03F07F0213469B0013449B003C
:1021280003F5A8737A6813440433BB60BB680022C4
:102138001A60BB6802221946786800F037FC6AE02A
:1021480097F90E30002B11DABB7B03F00F02796888
:1021580013469B0013449B000B4424331B88002B1D
:1021680017D13968786800F0B0FB54E0BB7B03F006
:102178000F02796813469B0013449B000B4403F538
:10218800B2731B88002B04D13968786800F09DFB76
:1021980041E097F90E30002B0BDABB7B03F07F028E
:1021A80013469B0013449B0010337A68134404338E
:1021B8000BE0BB7B03F07F0213469B0013449B009C
:1021C80003F5A8737A6813440433BB60BB7B002B08
:1021D80002D0BB7B802B03D1BB6800221A600EE0C3
:1021E800BB7B1946786806F0E5F80346002B03D058
:1021F800BB6801221A6002E0BB6800221A60BB6853
:1022080002221946786800F0D1FB04E03968786842
:1022180000F05BFB00BF04E03968786800F055FB0C
:1022280000BF05E03968786800F04FFB00E000BFA8
:10223800FB7B18461037BD4680BD000080B584B0D2
:1022480000AF7860396000233B810023FB600023E6
:10225800FB723B685B881B0A9BB2013B062B00F2B2
:10226800288101A252F823F08D220008A522000837
:10227800E5220008BB240008BB2400085B240008F2
:10228800872400087B68D3F8B4321B687A68127C0C
:1022980007F1080110469847F86012E17B681B7C3B
:1022A800002B0DD17B68D3F8B8329B6A07F108027E
:1022B80010469847F860FB68013302221A7000E163
:1022C8007B68D3F8B832DB6A07F1080210469847F2
:1022D800F860FB68013302221A70F2E03B685B8801
:1022E800DBB2052B00F2AC8001A252F823F000BF4C
:1022F800112300084523000879230008AD230008AE
:10230800E1230008152400087B68D3F8B4325B6821
:10231800002B0BD07B68D3F8B4325B687A68127CE8
:1023280007F1080110469847F86091E03968786825
:1023380000F0CBFAFB7A0133FB7289E07B68D3F8B3
:10234800B4329B68002B0BD07B68D3F8B4329B68FF
:102358007A68127C07F1080110469847F86077E020
:102368003968786800F0B1FAFB7A0133FB726FE0E4
:102378007B68D3F8B432DB68002B0BD07B68D3F8CA
:10238800B432DB687A68127C07F108011046984776
:10239800F8605DE03968786800F097FAFB7A0133F5
:1023A800FB7255E07B68D3F8B4321B69002B0BD065
:1023B8007B68D3F8B4321B697A68127C07F108018C
:1023C80010469847F86043E03968786800F07DFA6D
:1023D800FB7A0133FB723BE07B68D3F8B4325B696C
:1023E800002B0BD07B68D3F8B4325B697A68127C17
:1023F80007F1080110469847F86029E039687868BD
:1024080000F063FAFB7A0133FB7221E07B68D3F8B2
:10241800B4329B69002B0BD07B68D3F8B4329B692C
:102428007A68127C07F1080110469847F8600FE0B7
:102438003968786800F049FAFB7A0133FB7207E0E3
:102448003968786800F041FAFB7A0133FB7200BF03
:1024580037E07B681B7C002B09D17B68D3F8B83246
:102468005B6B07F1080210469847F86029E0396865
:10247800786800F02AFAFB7A0133FB7221E07B6866
:102488001B7C002B0DD17B68D3F8B8321B6B07F18E
:10249800080210469847F860FB68013307221A7053
:1024A8000FE03968786800F010FAFB7A0133FB72A4
:1024B80007E03968786800F008FAFB7A0133FB72A4
:1024C80000BFFB7A002B1ED13B68DB88002B16D09F
:1024D8003B89002B0ED03B68DA883B89934228BFA2
:1024E80013469BB23B813B891A46F968786800F02D
:1024F8005DFA09E03968786800F0E7F904E078687F
:1025080000F0AEFA00E000BF1037BD4680BD00BF46
:1025180080B584B000AF786039603B689B88002B39
:1025280031D13B68DB88002B2DD13B685B887F2B42
:1025380029D83B685B88DBB203F07F03FB737B68B9
:1025480093F89C32DBB2032B04D13968786800F029
:10255800BCF91DE07B68FA7B83F89E22FB7B194659
:10256800786805F053FF786800F07AFAFB7B002B57
:1025780004D07B68022283F89C2209E07B68012250
:1025880083F89C2204E03968786800F09EF900BF5F
:1025980000BF1037BD4680BD80B584B000AF7860FD
:1025A80039600023FB733B685B88DAB24E4B1A70C4
:1025B8004D4B1B78012B05D93968786800F085F9EF
:1025C80003238CE07B6893F89C32DBB2022B02D0A9
:1025D800032B29D075E0444B1B78002B20D0424BAD
:1025E8001B781A467B685A603F4B1B7819467868F7
:1025F800FEF7E1FF0346FB73FB7B002B08D039682D
:10260800786800F062F97B68022283F89C2265E012
:10261800786800F025FA7B68032283F89C225DE045
:10262800786800F01DFA59E02F4B1B78002B12D167
:102638007B68022283F89C222B4B1B781A467B6806
:102648005A60294B1B7819467868FEF7D0FF7868DE
:1026580000F006FA42E0244B1B781A467B685B6858
:102668009A422AD07B685B68DBB219467868FEF725
:10267800BEFF1D4B1B781A467B685A601A4B1B78A5
:1026880019467868FEF797FF0346FB73FB7B002B20
:102698000FD03968786800F018F97B685B68DBB29E
:1026A80019467868FEF7A3FF7B68022283F89C220C
:1026B80014E0786800F0D4F910E0786800F0D0F9F8
:1026C8000CE03968786800F000F9074B1B78194668
:1026D8007868FEF78CFF0323FB7300BFFB7B18466B
:1026E8001037BD4680BD00BFC101002080B582B053
:1026F80000AF786039603B68DB88012B04D039680B
:10270800786800F0E2F823E07B6893F89C32DBB24B
:10271800022B02DC002B03DC15E0032B0BD012E0AC
:102728007B6800229A607B68083301221946786822
:1027380000F03CF90CE07B68043301221946786804
:1027480000F034F904E03968786800F0BEF800BF9A
:1027580000BF0837BD4680BD80B582B000AF786045
:1027680039607B6893F89C32DBB2013B022B1ED8A0
:102778003B68DB88022B04D03968786800F0A5F83C
:102788001AE07B680122DA607B68D3F8A432002B58
:1027980005D07B68DB6843F002027B68DA607B68FF
:1027A8000C3302221946786800F000F904E0396811
:1027B800786800F08AF800BF00BF0837BD4680BDC2
:1027C80080B582B000AF786039603B685B88012BC8
:1027D80007D17B680122C3F8A422786800F040F989
:1027E80013E03B685B88022B0BD13B689B881B0A74
:1027F8009BB2DAB27B6883F8A022786800F030F9DF
:1028080003E03968786800F060F800BF0837BD4613
:1028180080BD80B582B000AF786039607B6893F87E
:102828009C32DBB2013B022B0BD83B685B88012B47
:102838000CD17B680022C3F8A422786800F010F954
:1028480004E03968786800F040F800E000BF00BF95
:102858000837BD4680BD80B584B000AF7860396068
:102868003B68FB60FB681A787B681A70FB68013369
:10287800FB60FB681A787B685A70FB680133FB6061
:10288800F868FFF741FA03461A467B685A80FB68E6
:102898000133FB60FB680133FB60F868FFF734FA2B
:1028A80003461A467B689A80FB680133FB60FB6825
:1028B8000133FB60F868FFF727FA03461A467B687E
:1028C800DA8000BF1037BD4680BD80B582B000AF4A
:1028D800786039608021786805F02EFD00217868DD
:1028E80005F02AFD00BF0837BD4680BD80B586B01B
:1028F80000AFF860B9607A600023FB75FB68002BB5
:1029080036D0FB683B61386900F036F8034601337E
:102918009BB25B009AB27B681A80FB7DBA6813444D
:102928007A6812781A70FB7D0133FB75FB7DBA68F3
:10293800134403221A70FB7D0133FB7513E0FB7D02
:10294800BA6813443A6912781A703B6901333B61DB
:10295800FB7D0133FB75FB7DBA68134400221A70B6
:10296800FB7D0133FB753B691B78002BE7D100E049
:1029780000BF1837BD4680BD80B485B000AF786011
:102988000023FB737B68BB6005E0FB7B0133FB73B3
:10299800BB680133BB60BB681B78002BF5D1FB7BA0
:1029A80018461437BD465DF8047B704780B584B07F
:1029B80000AFF860B9607A60FB680222C3F894221D
:1029C800FB687A689A61FB687A68DA617B68BA683A
:1029D8000021F86805F039FD002318461037BD4678
:1029E80080BD80B584B000AFF860B9607A607B685C
:1029F800BA680021F86805F028FD0023184610374A
:102A0800BD4680BD80B584B000AFF860B9607A601B
:102A1800FB680322C3F89422FB687A68C3F858213C
:102A2800FB687A68C3F85C217B68BA680021F8689B
:102A380005F02CFD002318461037BD4680BD80B533
:102A480084B000AFF860B9607A607B68BA6800212A
:102A5800F86805F01BFD002318461037BD4680BDF9
:102A680080B582B000AF78607B680422C3F89422F6
:102A7800002300220021786805F0E7FC00231846AF
:102A88000837BD4680BD80B582B000AF78607B68EE
:102A98000522C3F89422002300220021786805F05B
:102AA800F5FC002318460837BD4680BD80B485B0C4
:102AB80000AF78607B6803F00703FB600C4BDB68B2
:102AC800BB60BA684FF6FF031340BB60FB681A028D
:102AD800BB68134343F0BF6343F40033BB60044A4D
:102AE800BB68D36000BF1437BD465DF8047B7047F0
:102AF80000ED00E080B400AF044BDB681B0A03F074
:102B080007031846BD465DF8047B704700ED00E0FA
:102B180080B483B000AF0346FB7197F90730002BF0
:102B28000BDBFB7903F01F02074997F907305B09B4
:102B3800012000FA02F241F8232000BF0C37BD46FD
:102B48005DF8047B704700BF00E100E080B483B00B
:102B580000AF03463960FB7197F90730002B0ADB99
:102B68003B68DAB20C4997F907301201D2B20B442C
:102B780083F800230AE03B68DAB20849FB7903F0DE
:102B88000F03043B1201D2B20B441A7600BF0C3774
:102B9800BD465DF8047B704700E100E000ED00E011
:102BA80080B489B000AFF860B9607A60FB6803F060
:102BB8000703FB61FB69C3F10703042B28BF042348
:102BC800BB61FB690433062B02D9FB69033B00E0B8
:102BD80000237B614FF0FF32BB6902FA03F3DA434B
:102BE800BB681A407B699A404FF0FF317B6901FA54
:102BF80003F3D9437B680B40134318462437BD467B
:102C08005DF8047B7047000080B582B000AF786043
:102C18007B68013BB3F1807F01D301230FE00A4AAF
:102C28007B68013B53600F214FF0FF30FFF78EFFA9
:102C3800054B00229A60044B07221A6000231846AD
:102C48000837BD4680BD00BF10E000E080B582B007
:102C580000AF78607868FFF729FF00BF0837BD46E6
:102C680080BD80B586B000AF0346B9607A60FB735B
:102C780000237B61FFF73EFF78617A68B96878695D
:102C8800FFF78EFF024697F90F3011461846FFF7F7
:102C98005DFF00BF1837BD4680BD80B582B000AF6C
:102CA8000346FB7197F907301846FFF731FF00BF5D
:102CB8000837BD4680BD80B582B000AF78607868BF
:102CC800FFF7A2FF034618460837BD4680BD00003F
:102CD80080B586B000AF786000237B6103F082FB8B
:102CE80038617B68002B01D1012399E07B680222BF
:102CF80083F835207B68002283F834207B681B68C2
:102D08001A687B681B6822F001021A600FE003F062
:102D180069FB02463B69D31A052B08D97B68202238
:102D28005A657B68032283F83520032378E07B68A3
:102D38001B681B6803F00103002BE8D17B681B6844
:102D48001B687B617A69384B13407B617B685A68E2
:102D58007B689B681A437B68DB681A437B681B693E
:102D68001A437B685B691A437B689B691A437B68D3
:102D7800DB691A437B681B6A13437A6913437B61D7
:102D88007B685B6A042B07D17B68DA6A7B681B6BFC
:102D980013437A6913437B617B681B687A691A60FD
:102DA8007B681B685B697B617B6923F007037B6138
:102DB8007B685B6A7A6913437B617B685B6A042B77
:102DC80017D17B689B6A7A6913437B617B68DB6AEE
:102DD800002B0ED0786800F00BFA0346002B08D0C1
:102DE8007B6840225A657B68012283F835200123DD
:102DF80016E07B681B687A695A61786800F0C2F946
:102E08000346FB607B68DB6D3F229A40FB689A6053
:102E18007B6800225A657B68012283F835200023ED
:102E280018461837BD4680BD3F8010F080B483B087
:102E380000AF78607B6893F83530DBB2022B04D0A2
:102E48007B6880225A6501230CE07B68052283F8A1
:102E580035207B681B681A687B681B6822F00102B2
:102E68001A60002318460C37BD465DF8047B70478E
:102E780080B586B000AF78600023BB608E4B1B68BE
:102E88008E4AA2FB03239B0A7B617B689B6D3B6197
:102E98003B691B68FB607B68DB6D08229A40FB6816
:102EA8001340002B1AD07B681B681B6803F00403CF
:102EB800002B13D07B681B681A687B681B6822F09C
:102EC80004021A607B68DB6D08229A403B699A60AD
:102ED8007B685B6D43F001027B685A657B68DB6D3C
:102EE80001229A40FB681340002B12D07B681B68B4
:102EF8005B6903F08003002B0BD07B68DB6D01223C
:102F08009A403B699A607B685B6D43F002027B687C
:102F18005A657B68DB6D04229A40FB681340002BDE
:102F280012D07B681B681B6803F00203002B0BD0D0
:102F38007B68DB6D04229A403B699A607B685B6D15
:102F480043F004027B685A657B68DB6D10229A4067
:102F5800FB681340002B43D07B681B681B6803F099
:102F68000803002B3CD07B68DB6D10229A403B693C
:102F78009A607B681B681B6803F48023002B18D0B9
:102F88007B681B681B6803F40023002B08D17B684F
:102F98001B6C002B24D07B681B6C786898471FE05B
:102FA8007B689B6C002B1BD07B689B6C7868984770
:102FB80016E07B681B681B6803F48073002B07D13D
:102FC8007B681B681A687B681B6822F008021A6015
:102FD8007B681B6C002B03D07B681B6C7868984758
:102FE8007B68DB6D20229A40FB681340002B00F0C1
:102FF8008F807B681B681B6803F01003002B00F0B0
:1030080087807B68DB6D20229A403B699A607B68E9
:1030180093F83530DBB2052B36D17B681B681A680C
:103028007B681B6822F016021A607B681B685A6965
:103038007B681B6822F080025A617B681B6C002B3E
:1030480003D17B689B6C002B07D07B681B681A68D0
:103058007B681B6822F008021A607B68DB6D3F22E0
:103068009A403B699A607B68012283F835207B6827
:10307800002283F834207B681B6D002B7ED07B6890
:103088001B6D7868984779E07B681B681B6803F4B8
:103098008023002B1DD07B681B681B6803F400236A
:1030A800002B0DD17B685B6C002B31D07B685B6C8F
:1030B800786898472CE000BF00000020B5814E1BBF
:1030C8007B68DB6B002B23D07B68DB6B78689847C9
:1030D8001EE07B681B681B6803F48073002B0FD10C
:1030E8007B681B681A687B681B6822F010021A60EC
:1030F8007B68012283F835207B68002283F834201E
:103108007B68DB6B002B03D07B68DB6B78689847A8
:103118007B685B6D002B32D07B685B6D03F001032D
:10312800002B22D07B68052283F835207B681B683A
:103138001A687B681B6822F001021A60BB680133B9
:10314800BB607A699A4207D37B681B681B6803F0E7
:103158000103002BF2D100E000BF7B68012283F855
:1031680035207B68002283F834207B68DB6C002BD9
:1031780005D07B68DB6C7868984700E000BF18379B
:10318800BD4680BD80B485B000AF78607B681B68A1
:10319800DBB2103B144AA2FB03231B09FB60134A52
:1031A800FB6813441B781A467B68DA65FB68032BB7
:1031B80009D97B681B6823F47F7323F003031A1D66
:1031C8007B689A6507E07B681B6823F47F7323F0AC
:1031D80003037A6893657B689B6D18461437BD4670
:1031E8005DF8047B704700BFABAAAAAA60860008F6
:1031F80080B485B000AF78600023FB737B689B6A5E
:10320800BB607B689B69002B1FD1BB68032B56D81A
:1032180001A252F823F000BF3132000843320008FF
:1032280031320008C73200087B68DB6A03F080731C
:10323800002B46D00123FB7343E07B68DB6AB3F1C4
:10324800C07F40D10123FB733DE07B689B69B3F5E8
:10325800005F21D1BB68032B37D801A252F823F0B5
:10326800793200087F32000879320008913200086C
:103278000123FB7330E07B68DB6A03F08073002B6B
:1032880025D00123FB7322E07B68DB6AB3F1C07FA2
:103298001FD10123FB731CE0BB68022B03D9BB6859
:1032A800032B03D018E00123FB7315E07B68DB6A6E
:1032B80003F08073002B0ED00123FB730BE000BFDB
:1032C8000AE000BF08E000BF06E000BF04E000BF5E
:1032D80002E000BF00E000BFFB7B18461437BD4684
:1032E8005DF8047B704700BF80B489B000AF786098
:1032F800396000237B6100233B610023BB6100230D
:10330800FB616BE10122FB6902FA03F37B613B6815
:103318001B687A6913403B613A697B699A4240F0BD
:103328005A813B685B6803F00303012B05D03B68B7
:103338005B6803F00303022B30D17B689B68BB6199
:10334800FB695B00032202FA03F3DB43BA6913400B
:10335800BB613B68DA68FB695B0002FA03F3BA6990
:103368001343BB617B68BA699A607B685B68BB6121
:103378000122FB6902FA03F3DB43BA691340BB611C
:103388003B685B681B0903F00102FB6902FA03F35F
:10339800BA691343BB617B68BA695A603B685B686A
:1033A80003F00303032B17D07B68DB68BB61FB6961
:1033B8005B00032202FA03F3DB43BA691340BB61E3
:1033C8003B689A68FB695B0002FA03F3BA69134326
:1033D800BB617B68BA69DA603B685B6803F003032A
:1033E800022B23D1FB69DA087B68083253F82230B4
:1033F800BB61FB6903F007039B000F2202FA03F38A
:10340800DB43BA691340BB613B681A69FB6903F087
:1034180007039B0002FA03F3BA691343BB61FB6914
:10342800DA087B680832B96943F822107B681B68A0
:10343800BB61FB695B00032202FA03F3DB43BA6951
:103448001340BB613B685B6803F00302FB695B00E8
:1034580002FA03F3BA691343BB617B68BA691A605D
:103468003B685B6803F44033002B00F0B480002312
:10347800FB60604B5B6C5F4A43F4804353645D4B75
:103488005B6C03F48043FB60FB685B4AFB699B0849
:10349800023352F82330BB61FB6903F003039B003E
:1034A8000F2202FA03F3DB43BA691340BB617B685E
:1034B800524A93422BD07B68514A934225D07B686D
:1034C800504A93421FD07B684F4A934219D07B6879
:1034D8004E4A934213D07B684D4A93420DD07B6885
:1034E8004C4A934207D07B684B4A934201D1072349
:1034F8000EE008230CE006230AE0052308E0042375
:1035080006E0032304E0022302E0012300E0002395
:10351800FA6902F0030292009340BA691343BB614F
:103528003549FB699B080233BA6941F823203B4BB4
:103538009B68BB613B69DB43BA691340BB613B686D
:103548005B6803F48013002B03D0BA693B6913430B
:10355800BB61324ABB699360304BDB68BB613B6936
:10356800DB43BA691340BB613B685B6803F4001333
:10357800002B03D0BA693B691343BB61274ABB6977
:10358800D360264B5B68BB613B69DB43BA69134078
:10359800BB613B685B6803F40033002B03D0BA6956
:1035A8003B691343BB611D4ABB6953601B4B1B68D6
:1035B800BB613B69DB43BA691340BB613B685B682D
:1035C80003F48033002B03D0BA693B691343BB6112
:1035D800124ABB691360FB690133FB61FB690F2B5E
:1035E8007FF690AE00BF00BF2437BD465DF8047B70
:1035F800704700BF00380240003801400000024018
:103608000004024000080240000C02400010024082
:103618000014024000180240001C0240003C014017
:1036280080B483B000AF78600B467B8013467B7014
:103638007B78002B03D07A887B689A6103E07B88CB
:103648001A047B689A6100BF0C37BD465DF8047B9D
:10365800704780B485B000AF78600B467B807B688C
:103668005B69FB607A88FB6813401A04FB68D943DE
:103678007B880B401A437B689A6100BF1437BD46AC
:103688005DF8047B704780B485B000AF78600B4666
:10369800FB7013463B807B681B685B6ABB60FB78EA
:1036A800002B07D13B8819047B681B68BA680A435A
:1036B8009A6228E07B681B689B6A1B0CBA681344F3
:1036C800BB600023FB730DE07B681A68FB7B40330B
:1036D8009B0013445B681B0CBA681344BB60FB7BFC
:1036E8000133FB73FA7BFB78013B9A42ECD33B88AE
:1036F80018047B681968FB78013BBA6802434033B9
:103708009B000B445A60002318461437BD465DF8E9
:10371800047B704780B483B000AF78600B467B8031
:103728007B681B687A885A62002318460C37BD46A6
:103738005DF8047B704780B483B000AF78600B46B7
:10374800FB7000BF0C37BD465DF8047B704780B541
:1037580086B002AF78607B68002B01D1012301E1BC
:103768007B681B68BB607B6893F89534DBB2002BE1
:1037780006D17B68002283F89424786804F0EAFB79
:103788007B68032283F89524BB68B3F1A04F02D16C
:103798007B6800229A717B681B68184602F069FFF3
:1037A8007B6818687B681A7C8DF8002004330ECB80
:1037B80002F048FE0346002B05D07B68022283F8FE
:1037C80095240123CEE07B681B680021184602F08F
:1037D80061FF0346002B05D07B68022283F89524FD
:1037E8000123BFE00023FB734AE0FA7B79681346A4
:1037F800DB0013449B000B44153301221A70FA7B3B
:1038080079681346DB0013449B000B441433FA7B9E
:103818001A70FA7BFB7B98B279681346DB00134475
:103828009B000B442E3302461A80FA7B79681346B4
:10383800DB0013449B000B44183300221A70FA7BF8
:1038480079681346DB0013449B000B441C330022A9
:103858001A60FA7B79681346DB0013449B000B441B
:10386800203300221A60FA7B79681346DB00134480
:103878009B000B44243300221A60FB7B0133FB734B
:103888007B681B79FA7B9A42AFD30023FB7344E031
:10389800FA7B79681346DB0013449B000B4403F260
:1038A800552300221A70FA7B79681346DB0013440B
:1038B8009B000B4403F51573FA7B1A70FA7B796841
:1038C8001346DB0013449B000B4403F516730022D8
:1038D8001A70FA7B79681346DB0013449B000B448B
:1038E80003F5177300221A60FA7B79681346DB0028
:1038F80013449B000B4403F5187300221A60FA7BEB
:1039080079681346DB0013449B000B4403F51973D5
:1039180000221A60FB7B0133FB737B681B79FA7BFF
:103928009A42B5D37B6818687B681A7C8DF80020AA
:1039380004330ECB02F0FAFE0346002B05D07B6859
:10394800022283F8952401230CE07B6800225A7434
:103958007B68012283F895247B681B68184603F06E
:103968003EFF002318461037BD4680BD80B584B0A1
:1039780000AF78607B681B68FB607B6893F89434C1
:10398800012B01D1022322E07B68012283F89424D1
:10399800FB68DB6803F04003002B09D07B685B7B86
:1039A800012B05D1FB689B6B43F48032FB689A635B
:1039B8007B681B68184602F04BFE7B681B6818463C
:1039C80003F0ECFE7B68002283F894240023184659
:1039D8001037BD4680BD90B58DB000AF78607B686C
:1039E8001B683B623B6AFB617B681B68184603F0F7
:1039F800AAFF0346002B40F08C847B681B6818469E
:103A080003F00EFF0346002B00F08284FB6903F5E8
:103A180000639B681B0AC3F30D027B68C3F8D424B8
:103A28007B681B68184603F0FBFE034603F002039D
:103A3800022B07D17B681B685A697B681B6802F0F8
:103A480002025A617B681B68184603F0E9FE0346C8
:103A580003F01003102B61D17B681B689A697B689F
:103A68001B6822F010029A613B6A1B6ABB61BB6942
:103A780003F00F021346DB0013449B0003F5147395
:103A88007A68134404337B61BB695B0C03F00F0352
:103A9800022B24D1BA6947F6F0731340002B35D0B6
:103AA8007B69D968BB691B099BB2C3F30A039BB244
:103AB8001A46386A03F020FD7B69DA68BB691B097E
:103AC800C3F30A031A447B69DA607B695A69BB69E4
:103AD8001B09C3F30A031A447B695A6116E0BB69E0
:103AE8005B0C03F00F03062B10D17B6803F29C4399
:103AF80008221946386A03F0FFFC7B695A69BB69DA
:103B08001B09C3F30A031A447B695A617B681B6863
:103B18009A697B681B6842F010029A617B681B688F
:103B2800184603F07DFE034603F40023B3F5002F87
:103B380040F0A78000237B627B681B68184603F06F
:103B480082FEB86299E0BB6A03F00103002B00F023
:103B58008E807B681B687A6AD2B21146184603F0D9
:103B6800A6FE38613B6903F00103002B0CD07B6A89
:103B78005A01FB69134403F530631A460123936025
:103B8800796A786800F0A2FE3B6903F00803002B0D
:103B98000CD07B6A5A01FB69134403F530631A465B
:103BA80008239360796A786800F078FF3B6903F02E
:103BB8001003002B08D07B6A5A01FB69134403F5F4
:103BC80030631A46102393603B6903F00203002B0D
:103BD80030D03B6A5B6903F08003802B09D1FB6915
:103BE80003F500635B68FA6902F5006243F48063D9
:103BF80053607A6A1346DB0013449B0003F5147381
:103C08007A68134404337B617B69DB78012B08D124
:103C18007B690022DA707B6ADBB21946786804F0A7
:103C28009FFA7B6A5A01FB69134403F530631A460D
:103C3800022393603B6903F02003002B08D07B6AC2
:103C48005A01FB69134403F530631A462023936035
:103C58003B6903F40053002B09D07B6A5A01FB69C6
:103C6800134403F530631A464FF4005393607B6A9C
:103C780001337B62BB6A5B08BB62BB6A002B7FF4C3
:103C880062AF7B681B68184603F0CAFD034603F45D
:103C98008023B3F5802F40F0DB807B681B681846D3
:103CA80003F0EBFDB86200237B62CDE0BB6A03F052
:103CB8000103002B00F0C2807B681B687A6AD2B2CD
:103CC8001146184603F011FE38613B6903F0010301
:103CD800002B57D07B6A03F00F03012202FA03F38B
:103CE800FB60FB6903F500635A6BFB68DB43F9690A
:103CF80001F5006113404B637B6A5A01FB69134469
:103D080003F510631A46012393607B689B79012BA6
:103D180032D179687A6A1346DB0013449B000B445E
:103D28002033196878687A6A1346DB0013449B00CD
:103D380003441C331B68194478687A6A1346DB000D
:103D480013449B000344203319607B6A002B13D172
:103D580079687A6A1346DB0013449B000B442433CA
:103D68001B68002B08D17B6818687B6803F29C43AA
:103D78001A46012103F018FE7B6ADBB219467868FF
:103D880004F069F93B6903F00803002B08D07B6A4B
:103D98005A01FB69134403F510631A46082393601C
:103DA8003B6903F01003002B08D07B6A5A01FB69BA
:103DB800134403F510631A46102393603B6903F01C
:103DC8004003002B08D07B6A5A01FB69134403F5B2
:103DD80010631A46402393603B6903F00203002BEB
:103DE80023D0796A386A02F005FE7A6A1346DB0046
:103DF80013449B0010337A68134404337B617B6956
:103E0800DB78012B08D17B690022DA707B6ADBB290
:103E18001946786804F0B6F97B6A5A01FB691344BD
:103E280003F510631A46022393603B6903F080038D
:103E3800002B03D0796A786800F0BBFC7B6A0133F9
:103E48007B62BB6A5B08BB62BB6A002B7FF42EAF48
:103E58007B681B68184603F0E3FC034603F0004345
:103E6800B3F1004F22D1FB6903F500635B68FA697F
:103E780002F5006223F0010353607B6893F8CC34A9
:103E8800012B08D17B68002283F8CC2400217868B4
:103E9800FFF751FC02E0786804F054F97B681B686E
:103EA8005A697B681B6802F000425A617B681B688C
:103EB800184603F0B5FC034603F40063B3F5006F3E
:103EC80012D1FB6903F500639B6803F00103012B22
:103ED80002D1786804F010F97B681B685A697B681E
:103EE8001B6802F400625A617B681B68184603F07D
:103EF80097FC034603F48053B3F5805F40F0B78026
:103F0800FB6903F500635B68FA6902F5006223F058
:103F1800010353607B681B681021184602F06AFD94
:103F28000023FB6246E0FB6A5A01FB69134403F570
:103F380010631A464FF67F339360FB6A5A01FB6998
:103F4800134403F510631B68FA6A5101FA690A44BD
:103F580002F5106223F400131360FB6A5A01FB692F
:103F6800134403F530631A464FF67F339360FB6AB8
:103F78005A01FB69134403F530631B68FA6A51015F
:103F8800FA690A4402F5306223F400131360FB6AED
:103F98005A01FB69134403F530631B68FA6A51013F
:103FA800FA690A4402F5306243F000631360FB6A61
:103FB8000133FB627B681B791A46FB6A9342B2D3D2
:103FC800FB6903F50063DB69FA6902F5006243F0F7
:103FD8000113D3617B68DB7B002B16D0FB6903F5EB
:103FE8000063D3F88430FA6902F5006243F00B03EA
:103FF800C2F88430FB6903F500635B6CFA6902F56B
:10400800006243F00B03536415E0FB6903F500639A
:104018005B69FA6902F5006243F4005343F02B032D
:104028005361FB6903F500631B69FA6902F50062D5
:1040380043F00B031361FB6903F500631B68FA691E
:1040480002F5006223F4FE6313607B6818687B68DE
:1040580099797B6803F29C431A4603F0A5FC7B68B8
:104068001B685A697B681B6802F480525A617B6836
:104078001B68184603F0D4FB034603F40053B3F55A
:10408800005F23D17B681B68184603F06AFC7B68D5
:104098001B68184602F027FD03461A467B68DA714A
:1040A8007B681C6801F064F901467B68DB791A4675
:1040B800204602F02BFA786803F0F5FF7B681B684E
:1040C8005A697B681B6802F400525A617B681B6856
:1040D800184603F0A5FB034603F00803082B0AD192
:1040E800786803F0D2FF7B681B685A697B681B6895
:1040F80002F008025A617B681B68184603F090FBBF
:10410800034603F08003802B23D13B6A9B6923F08D
:1041180080023B6A9A6101237B6214E079687A6ABB
:104128001346DB0013449B000B4403F257231B7810
:10413800012B05D17B6ADBB21946786800F008FBD1
:104148007B6A01337B627B681B791A467B6A9342E0
:10415800E4D37B681B68184603F062FB034603F44C
:104168008013B3F5801F3CD101237B622BE07B6A6F
:104178005A01FB69134403F510631B68BB61796836
:104188007A6A1346DB0013449B000B4418331B78F0
:10419800012B15D1BB69002B12DA79687A6A1346AC
:1041A800DB0013449B000B44173301221A707B6A0F
:1041B800DBB263F07F03DBB21946786800F0C8FA17
:1041C8007B6A01337B627B681B791A467B6A934260
:1041D800CDD37B681B685A697B681B6802F4801220
:1041E8005A617B681B68184603F01AFB034603F400
:1041F8000013B3F5001F56D101237B6245E07B6AAB
:104208005A01FB69134403F530631B68BB61796885
:104218007A6A1346DB0013449B000B4403F51673BC
:104228001B78012B2ED1BB69002B2BDABB6903F459
:1042380080327B68D3F8D43403F001039A4221D149
:1042480079687A6A1346DB0013449B000B4403F237
:10425800572301221A703B6A9B6943F080023B6A2C
:104268009A613B6A5B6903F08003002B0AD1FB6902
:1042780003F500635B68FA6902F5006243F40073B2
:10428800536008E07B6A01337B627B681B791A46BE
:104298007B6A9342B3D37B681B685A697B681B6847
:1042A80002F400125A617B681B68184603F0B8FADA
:1042B800034603F08043B3F1804F0AD1786803F0D6
:1042C80073FF7B681B685A697B681B6802F0804231
:1042D8005A617B681B68184603F0A2FA034603F08C
:1042E8000403042B15D17B681B685B68BB61BB6941
:1042F80003F00403002B02D0786803F063FF7B68A7
:104308001B6859687B681B68BA690A435A6000E0F1
:1043180000BF3437BD4690BD80B582B000AF78602D
:104328000B46FB707B6893F89434012B01D1022370
:1043380012E07B68012283F894247B68FA785A7427
:104348007B681B68FA781146184603F001FA7B6807
:10435800002283F89424002318460837BD4680BD00
:1043680080B584B000AF7860084611461A46034607
:10437800FB700B463B801346BB700023FB7297F91A
:104388000330002B0FDAFB7803F00F021346DB0033
:1043980013449B0010337A6813440433FB60FB68B2
:1043A80001225A700FE0FB7803F00F021346DB007E
:1043B80013449B0003F514737A6813440433FB60B9
:1043C800FB6800225A70FB7803F00F03DAB2FB682F
:1043D8001A703A88FB689A60FB68BA781A71FB68A9
:1043E8005B78002B04D0FB681B789AB2FB685A8371
:1043F800BB78022B02D1FB6800225A717B6893F8C4
:104408009434012B01D102230EE07B68012283F84A
:1044180094247B681B68F968184602F089FB7B685E
:10442800002283F89424FB7A18461037BD4680BDD5
:1044380080B584B000AF78600B46FB7097F9033005
:10444800002B0FDAFB7803F00F021346DB0013444E
:104458009B0010337A6813440433FB60FB68012225
:104468005A700FE0FB7803F00F021346DB00134489
:104478009B0003F514737A6813440433FB60FB68EC
:1044880000225A70FB7803F00F03DAB2FB681A7047
:104498007B6893F89434012B01D102230EE07B68EA
:1044A800012283F894247B681B68F968184602F097
:1044B800C7FB7B68002283F8942400231846103732
:1044C800BD4680BD80B586B000AFF8607A603B60BD
:1044D8000B46FB72FB7A03F00F021346DB00134412
:1044E8009B0003F51473FA68134404337B617B69FA
:1044F8007A68DA607B693A681A617B6900225A61D6
:104508007B6900225A70FB7A03F00F03DAB27B69E9
:104518001A70FB689B79012B02D17A687B69DA6192
:10452800FB681868FB689B791A46796902F064FC95
:10453800002318461837BD4680BD80B483B000AF4D
:1045480078600B46FB70FB7803F00F02796813461E
:10455800DB0013449B000B4403F51A731B681846D1
:104568000C37BD465DF8047B704780B586B000AF58
:10457800F8607A603B600B46FB72FB7A03F00F022F
:104588001346DB0013449B001033FA6813440433CA
:104598007B617B697A68DA607B693A681A617B6952
:1045A80000225A617B6901225A70FB7A03F00F03DB
:1045B800DAB27B691A70FB689B79012B02D17A68A1
:1045C8007B69DA61FB681868FB689B791A46796928
:1045D80002F012FC002318461837BD4680BD80B58E
:1045E80084B000AF78600B46FB70FB7803F00F03D4
:1045F8007A681279934201D901234FE097F9033081
:10460800002B0FDAFB7803F00F021346DB0013448C
:104618009B0010337A6813440433FB60FB68012263
:104628005A700DE0FA781346DB0013449B0003F53B
:1046380014737A6813440433FB60FB6800225A70D1
:10464800FB6801229A70FB7803F00F03DAB2FB686B
:104658001A707B6893F89434012B01D102231DE072
:104668007B68012283F894247B681B68F9681846E4
:1046780002F09AFFFB7803F00F03002B09D17B6847
:1046880018687B6899797B6803F29C431A4603F0A3
:104698008BF97B68002283F894240023184610378E
:1046A800BD4680BD80B584B000AF78600B46FB7016
:1046B800FB7803F00F037A681279934201D901233A
:1046C80042E097F90330002B0FDAFB7803F00F0272
:1046D8001346DB0013449B0010337A6813440433F9
:1046E800FB60FB6801225A700FE0FB7803F00F02B1
:1046F8001346DB0013449B0003F514737A681344D4
:104708000433FB60FB6800225A70FB6800229A7031
:10471800FB7803F00F03DAB2FB681A707B6893F832
:104728009434012B01D102230EE07B68012283F827
:1047380094247B681B68F968184602F0A3FF7B681D
:10474800002283F89424002318461037BD4680BD04
:1047580080B584B000AF78600B46FB7097F90330E2
:10476800002B0CDAFB7803F00F021346DB0013442E
:104778009B0010337A6813440433FB600CE0FB7829
:1047880003F00F021346DB0013449B0003F5147378
:104798007A6813440433FB607B681B68F968184621
:1047A80002F0C2FD0346FB72FB7A18461037BD467D
:1047B80080BD80B58AB002AF786039607B681B68BD
:1047C8007B617B693B613A681346DB0013449B00BD
:1047D80010337A6813440433FB60FB685A69FB683A
:1047E8001B699A4201D901236BE0FB681A69FB68CF
:1047F8005B69D31AFB61FB689B68FA699A4202D924
:10480800FB689B68FB61FB6903339B08BB612AE07B
:10481800FB681A69FB685B69D31AFB61FB689B68D4
:10482800FA699A4202D9FB689B68FB61FB6903330A
:104838009B08BB61FB68D9683B68DAB2FB6998B230
:104848007B689B7900930346786902F017FEFB6842
:10485800DA68FB691A44FB68DA60FB685A69FB6925
:104868001A44FB685A613B685A013B69134403F5D3
:1048780010639B699BB2BA699A4209D8FB685A6966
:10488800FB681B699A4203D2FB681B69002BBFD1E6
:10489800FB681A69FB685B699A4211D83B6803F0A8
:1048A8000F03012202FA03F3BB603B6903F50063BF
:1048B8005A6BBB68DB43396901F5006113404B63F0
:1048C800002318462037BD4680BD000080B588B05B
:1048D80000AF786039607B681B68FB61FB69BB616E
:1048E800FB693C3304331B687B613B685A01BB6935
:1048F800134403F530639B683B617B689B79012B0C
:104908007BD13B6903F00803002B15D07B69614A12
:10491800934240F2B9803B6903F40043002B00F056
:10492800B3803B685A01BB69134403F530631A46E8
:104938004FF400439360A7E03B6903F02003002B8A
:1049480009D03B685A01BB69134403F530631A4622
:104958002023936098E03B6903F02803002B40F084
:1049680093807B694B4A93420FD93B6903F4004318
:10497800002B0AD03B685A01BB69134403F5306326
:104988001A464FF4004393607EE03A681346DB0012
:1049980013449B0003F514737A6813440433FB60D3
:1049A800FB681A6A3B685901BB690B4403F530631D
:1049B8001B69C3F31203D21AFB685A613B68002BC8
:1049C80014D1FB681B69002B09D17B6818687B68C8
:1049D80003F29C431A46012102F0E6FF06E0FB6859
:1049E800DA68FB685B691A44FB68DA603B68DBB22B
:1049F8001946786803F014FB46E07B69264A93421F
:104A080024D13B6903F40043002B0AD03B685A01C8
:104A1800BB69134403F530631A464FF400439360AF
:104A280032E03B6903F02003002B08D03B685A01B1
:104A3800BB69134403F530631A46202393603B682F
:104A4800DBB21946786803F0EBFA1DE03B68002BEF
:104A580014D179683A681346DB0013449B000B4471
:104A680003F519731B68002B08D17B6818687B68ED
:104A780003F29C431A46002102F096FF3B68DBB222
:104A88001946786803F0CCFA002318462037BD464B
:104A980080BD00BF0A30544F0A31544F80B586B0EC
:104AA80000AF786039607B681B687B617B693B611C
:104AB8007B693C3304331B68FB603B685A013B69E4
:104AC800134403F530639B68BB60FB68154A934247
:104AD8000ED9BB6803F40043002B09D03B685A0188
:104AE8003B69134403F530631A464FF4004393605F
:104AF800786803F083FAFB680A4A93420CD97B680A
:104B08009B79012B08D17B6818687B6803F29C436A
:104B18001A46012102F048FF002318461837BD46FF
:104B280080BD00BF0A30544F80B586B000AF7860B2
:104B38007B68002B01D1012367E27B681B6803F0C7
:104B48000103002B75D0884B9B6803F00C03042BE2
:104B58000CD0854B9B6803F00C03082B12D1824BB9
:104B68005B6803F48003B3F5800F0BD17E4B1B68A1
:104B780003F40033002B5BD07B685B68002B57D1B4
:104B8800012342E27B685B68B3F5803F06D1764B30
:104B98001B68754A43F4803313601DE07B685B68CB
:104BA800B3F5A02F0CD1704B1B686F4A43F48023D8
:104BB80013606D4B1B686C4A43F4803313600BE041
:104BC800694B1B68684A23F480331360664B1B6883
:104BD800654A23F4802313607B685B68002B13D03D
:104BE80001F000FC386108E001F0FCFB02463B697B
:104BF800D31A642B01D9032307E25B4B1B6803F428
:104C08000033002BF0D014E001F0ECFB386108E031
:104C180001F0E8FB02463B69D31A642B01D9032350
:104C2800F3E1514B1B6803F40033002BF0D100E093
:104C380000BF7B681B6803F00203002B63D04A4B5C
:104C48009B6803F00C03002B0BD0474B9B6803F0C9
:104C58000C03082B1CD1444B5B6803F48003002B26
:104C680016D1414B1B6803F00203002B05D07B686B
:104C7800DB68012B01D00123C7E13B4B1B6823F004
:104C8800F8027B681B69DB00374913430B603AE085
:104C98007B68DB68002B20D0344B01221A6001F0BE
:104CA800A1FB386108E001F09DFB02463B69D31A7D
:104CB800022B01D90323A8E12B4B1B6803F0020345
:104CC800002BF0D0284B1B6823F0F8027B681B6987
:104CD800DB00254913430B6015E0244B00221A60C2
:104CE80001F080FB386108E001F07CFB02463B697B
:104CF800D31A022B01D9032387E11B4B1B6803F04E
:104D08000203002BF0D17B681B6803F00803002B1B
:104D180036D07B685B69002B16D0154B01221A60D0
:104D280001F060FB386108E001F05CFB02463B697A
:104D3800D31A022B01D9032367E10B4B5B6F03F0F6
:104D48000203002BF0D01BE0094B00221A6001F08F
:104D580049FB38610EE001F045FB02463B69D31A76
:104D6800022B07D9032350E10038024000004742D4
:104D7800800E4742884B5B6F03F00203002BEAD199
:104D88007B681B6803F00403002B00F09780002366
:104D9800FB75814B1B6C03F08053002B0FD1002354
:104DA800BB607D4B1B6C7C4A43F0805313647A4B89
:104DB8001B6C03F08053BB60BB680123FB75774B0A
:104DC8001B6803F48073002B18D1744B1B68734A5B
:104DD80043F48073136001F005FB386108E001F0CB
:104DE80001FB02463B69D31A022B01D903230CE1CC
:104DF8006A4B1B6803F48073002BF0D07B689B68B8
:104E0800012B06D1644B1B6F634A43F00103136700
:104E18001CE07B689B68052B0CD15F4B1B6F5E4ABF
:104E280043F0040313675C4B1B6F5B4A43F00103B9
:104E380013670BE0584B1B6F574A23F001031367A6
:104E4800554B1B6F544A23F0040313677B689B6818
:104E5800002B15D001F0C6FA38610AE001F0C2FA59
:104E680002463B69D31A41F28832934201D903239F
:104E7800CBE0494B1B6F03F00203002BEED014E08C
:104E880001F0B0FA38610AE001F0ACFA02463B6979
:104E9800D31A41F28832934201D90323B5E03E4B3D
:104EA8001B6F03F00203002BEED1FB7D012B05D114
:104EB800394B1B6C384A23F0805313647B689B6919
:104EC800002B00F0A180344B9B6803F00C03082BE7
:104ED8005CD07B689B69022B41D1314B00221A6060
:104EE80001F080FA386108E001F07CFA02463B697B
:104EF800D31A022B01D9032387E0274B1B6803F041
:104F08000073002BF0D17B68DA697B681B6A1A434F
:104F18007B685B6A9B011A437B689B6A5B08013B61
:104F28001B041A437B68DB6A1B061B4913434B604F
:104F38001B4B01221A6001F055FA386108E001F0B4
:104F480051FA02463B69D31A022B01D903235CE0CC
:104F5800114B1B6803F00073002BF0D054E0104B8A
:104F680000221A6001F03EFA386108E001F03AFACE
:104F780002463B69D31A022B01D9032345E0064BAD
:104F88001B6803F00073002BF0D13DE07B689B6940
:104F9800012B07D1012338E000380240007000409F
:104FA800600047421B4B5B68FB607B689B69012B79
:104FB80028D0FB6803F480027B68DB699A4221D120
:104FC800FB6803F03F027B681B6A9A421AD1FA68B1
:104FD80047F6C07313407A68526A9201934211D11E
:104FE800FB6803F440327B689B6A5B08013B1B0447
:104FF8009A4207D1FB6803F070627B68DB6A1B0684
:105008009A4201D0012300E0002318461837BD4614
:1050180080BD00BF0038024080B584B000AF786022
:1050280039607B68002B01D10123CCE0684B1B68F9
:1050380003F007033A689A420CD9654B3A68D2B232
:105048001A70634B1B6803F007033A689A4201D051
:105058000123B8E07B681B6803F00203002B20D013
:105068007B681B6803F00403002B05D0594B9B6831
:10507800584A43F4E05393607B681B6803F00803C5
:10508800002B05D0534B9B68524A43F4604393600E
:10509800504B9B6823F0F0027B689B684D49134393
:1050A8008B607B681B6803F00103002B44D07B688E
:1050B8005B68012B07D1474B1B6803F40033002BB7
:1050C80019D101237FE07B685B68022B03D07B68E2
:1050D8005B68032B07D13F4B1B6803F00073002B61
:1050E80009D101236FE03B4B1B6803F00203002B3F
:1050F80001D1012367E0374B9B6823F003027B68EB
:105108005B68344913438B6001F06CF9F8600AE07E
:1051180001F068F90246FB68D31A41F288329342DB
:1051280001D903234FE02B4B9B6803F00C027B68EB
:105138005B689B009A42EBD1254B1B6803F0070381
:105148003A689A420CD2224B3A68D2B21A70204B73
:105158001B6803F007033A689A4201D0012332E042
:105168007B681B6803F00403002B08D0194B9B686D
:1051780023F4E0527B68DB68164913438B607B6835
:105188001B6803F00803002B09D0124B9B6823F41B
:1051980060427B681B69DB000E4913438B6000F09B
:1051A80021F802460B4B9B681B0903F00F030A49C1
:1051B800CB5C22FA03F3094A1360094B1B681846B3
:1051C80001F0CCF8002318461037BD4680BD00BF5B
:1051D800003C0240003802405086000800000020D1
:1051E800900000202DE9B04F90B000AF00237B6302
:1051F8000023FB6300233B630023BB63594B9B687D
:1052080003F00C03082B0DD0082B00F2A180002B13
:1052180002D0042B03D09BE0534BBB639BE0534B62
:10522800BB6398E04F4B5B6803F03F037B634D4BD8
:105238005B6803F48003002B28D04A4B5B689B090A
:1052480000223B627A623B6AC3F308000021474BA5
:1052580003FB01F2002300FB03F31344434AA0FBC2
:105268000212FA620A46BA62FA6A1344FB627B6B5C
:105278000022BB61FA61D7E90623D7E90A01FAF7E8
:105288009FFF02460B461346FB6353E0354B5B68B2
:105298009B0900223B617A613B69C3F3080A4FF01E
:1052A800000B52465B464FF000004FF000015901D9
:1052B80041EAD261500102460B46B2EB0A0863EBA1
:1052C8000B094FF000024FF000034FEA891343EA3D
:1052D80098634FEA8812B2EB080463EB09054FF0B4
:1052E80000024FF00003EB0043EA5473E200144657
:1052F8001D4614EB0A033B6045EB0B037B604FF044
:1053080000024FF00003D7E9004529468B022146E9
:1053180043EA915321468A02104619467B6B0022C4
:10532800BB60FA60D7E90223FAF74AFF02460B4648
:105338001346FB630B4B5B681B0C03F00303013341
:105348005B003B63FA6B3B6BB2FBF3F3BB6302E0BE
:10535800054BBB6300BFBB6B18464037BD46BDE875
:10536800B08F00BF003802400024F400001BB700D3
:1053780080B400AF034B1B681846BD465DF8047B3C
:10538800704700BF0000002080B485B000AF78608F
:1053980039607B6893F83C30012B01D102235AE035
:1053A8007B68012283F83C207B68022283F83D2039
:1053B8007B681B685B68FB607B681B689B68BB60DD
:1053C800FB6823F07003FB603B681B68FA681343B3
:1053D800FB607B681B68FA685A607B681B68214A17
:1053E800934222D07B681B68B3F1804F1DD07B6845
:1053F8001B681D4A934218D07B681B681B4A93425E
:1054080013D07B681B681A4A93420ED07B681B68CE
:10541800184A934209D07B681B68174A934204D004
:105428007B681B68154A93420CD1BB6823F0800344
:10543800BB603B685B68BA681343BB607B681B68EA
:10544800BA689A607B68012283F83D207B68002255
:1054580083F83C20002318461437BD465DF8047BCA
:10546800704700BF000001400004004000080040F1
:10547800000C0040000401400040014000180040BA
:1054880080B483B000AF786000BF0C37BD465DF8CC
:10549800047B704780B483B000AF786000BF0C37DE
:1054A800BD465DF8047B704780B582B000AF786078
:1054B8007B68002B01D1012341E07B6893F83D30E4
:1054C800DBB2002B06D17B68002283F83C20786889
:1054D800FBF7EEF97B68022283F83D207B681A68A7
:1054E8007B6804331946104600F0FAFB7B680122FA
:1054F80083F846207B68012283F83E207B680122DE
:1055080083F83F207B68012283F840207B680122D2
:1055180083F841207B68012283F842207B680122BE
:1055280083F843207B68012283F844207B680122AA
:1055380083F845207B68012283F83D200023184624
:105548000837BD4680BD80B582B000AF78607B6803
:10555800002B01D1012341E07B6893F83D30DBB299
:10556800002B06D17B68002283F83C20786800F085
:1055780039F87B68022283F83D207B681A687B68CB
:1055880004331946104600F0ABFB7B68012283F810
:1055980046207B68012283F83E207B68012283F83D
:1055A8003F207B68012283F840207B68012283F832
:1055B80041207B68012283F842207B68012283F81E
:1055C80043207B68012283F844207B68012283F80A
:1055D80045207B68012283F83D20002318460837C0
:1055E800BD4680BD80B483B000AF786000BF0C3783
:1055F800BD465DF8047B704780B584B000AF786025
:1056080039600023FB733B680C2B55D801A252F874
:1056180023F000BF51560008C1560008C1560008C3
:10562800C15600086D560008C1560008C15600084A
:10563800C156000889560008C1560008C15600081E
:10564800C1560008A55600087B681B68DA687B68A5
:105658001B6822F40072DA607B685B6A1846FDF703
:10566800E5FB2CE07B681B68DA687B681B6822F422
:105678008062DA607B689B6A1846FDF7D7FB1EE0FC
:105688007B681B68DA687B681B6822F40062DA6052
:105698007B68DB6A1846FDF7C9FB10E07B681B686E
:1056A800DA687B681B6822F48052DA607B681B6BBF
:1056B8001846FDF7BBFB02E00123FB7300BFFB7B31
:1056C800002B61D17B681B6800223968184600F0FE
:1056D800FDFD7B681B682F4A934204D07B681B68DA
:1056E8002D4A934201D1012300E00023002B17D05B
:1056F8007B681B681A6A41F211131340002B0FD103
:105708007B681B681A6A40F244431340002B07D198
:105718007B681B685A6C7B681B6822F400425A64D9
:105728007B681B681A6A41F211131340002B0FD1D2
:105738007B681B681A6A40F244431340002B07D168
:105748007B681B681A687B681B6822F001021A6074
:105758003B68002B04D17B68012283F83E2013E0CC
:105768003B68042B04D17B68012283F83F200BE0BF
:105778003B68082B04D17B68012283F8402003E0B2
:105788007B68012283F84120FB7B18461037BD4611
:1057980080BD00BF000001400004014080B584B016
:1057A80000AF78607B681B68DB68FB607B681B6800
:1057B8001B69BB60BB6803F00203002B20D0FB68A9
:1057C80003F00203002B1BD07B681B686FF00202FA
:1057D8001A617B6801221A777B681B689B6903F052
:1057E8000303002B03D0786800F065FA05E07868B9
:1057F80000F057FA7868FBF713F87B6800221A77ED
:10580800BB6803F00403002B20D0FB6803F00403FB
:10581800002B1BD07B681B686FF004021A617B6841
:1058280002221A777B681B689B6903F44073002B7C
:1058380003D0786800F03FFA05E0786800F031FAA4
:105848007868FAF7EDFF7B6800221A77BB6803F0E7
:105858000803002B20D0FB6803F00803002B1BD0A3
:105868007B681B686FF008021A617B6804221A774C
:105878007B681B68DB6903F00303002B03D078689F
:1058880000F019FA05E0786800F00BFA7868FAF782
:10589800C7FF7B6800221A77BB6803F01003002B50
:1058A80020D0FB6803F01003002B1BD07B681B681B
:1058B8006FF010021A617B6808221A777B681B68F0
:1058C800DB6903F44073002B03D0786800F0F3F928
:1058D80005E0786800F0E5F97868FAF7A1FF7B68D9
:1058E80000221A77BB6803F00103002B0CD0FB6879
:1058F80003F00103002B07D07B681B686FF00102DF
:105908001A61786800F0C3F9BB6803F08003002BC4
:105918000CD0FB6803F08003002B07D07B681B6862
:105928006FF080021A617868FFF7B4FDBB6803F076
:105938004003002B0CD0FB6803F04003002B07D07A
:105948007B681B686FF040021A61786800F0BDF947
:10595800BB6803F02003002B0CD0FB6803F0200386
:10596800002B07D07B681B686FF020021A617868EB
:10597800FFF786FD00BF1037BD4680BD80B586B0F5
:1059880000AFF860B9607A600023FB75FB6893F894
:105998003C30012B01D10223AEE0FB68012283F8E1
:1059A8003C207B680C2B00F29F8001A252F823F068
:1059B800ED590008F15A0008F15A0008F15A000898
:1059C8002D5A0008F15A0008F15A0008F15A000847
:1059D8006F5A0008F15A0008F15A0008F15A0008F5
:1059E800AF5A0008FB681B68B968184600F024FA2B
:1059F800FB681B689A69FB681B6842F008029A6199
:105A0800FB681B689A69FB681B6822F004029A61AC
:105A1800FB681B689969BB681A69FB681B680A43BD
:105A28009A6164E0FB681B68B968184600F074FA6C
:105A3800FB681B689A69FB681B6842F400629A61FC
:105A4800FB681B689A69FB681B6822F480629A618C
:105A5800FB681B689969BB681B691A02FB681B68AD
:105A68000A439A6143E0FB681B68B968184600F06E
:105A7800C9FAFB681B68DA69FB681B6842F0080210
:105A8800DA61FB681B68DA69FB681B6822F00402AC
:105A9800DA61FB681B68D969BB681A69FB681B680F
:105AA8000A43DA6123E0FB681B68B968184600F00E
:105AB8001DFBFB681B68DA69FB681B6842F400621F
:105AC800DA61FB681B68DA69FB681B6822F480628C
